{"contracts/Token.sol":{"Token":{"abi":[{"inputs":[{"internalType":"address","name":"creator_","type":"address"},{"internalType":"string","name":"name_","type":"string"},{"internalType":"string","name":"symbol_","type":"string"},{"internalType":"uint256","name":"initialSupply_","type":"uint256"},{"internalType":"bool","name":"antiBot_","type":"bool"},{"internalType":"bool","name":"antiWhale_","type":"bool"},{"internalType":"uint256","name":"maxTxAmount_","type":"uint256"},{"internalType":"bool","name":"taxEnabled_","type":"bool"},{"internalType":"address[]","name":"taxRecipients_","type":"address[]"},{"internalType":"uint256[]","name":"taxPercentages_","type":"uint256[]"}],"stateMutability":"nonpayable","type":"constructor"},{"inputs":[{"internalType":"address","name":"spender","type":"address"},{"internalType":"uint256","name":"allowance","type":"uint256"},{"internalType":"uint256","name":"needed","type":"uint256"}],"name":"ERC20InsufficientAllowance","type":"error"},{"inputs":[{"internalType":"address","name":"sender","type":"address"},{"internalType":"uint256","name":"balance","type":"uint256"},{"internalType":"uint256","name":"needed","type":"uint256"}],"name":"ERC20InsufficientBalance","type":"error"},{"inputs":[{"internalType":"address","name":"approver","type":"address"}],"name":"ERC20InvalidApprover","type":"error"},{"inputs":[{"internalType":"address","name":"receiver","type":"address"}],"name":"ERC20InvalidReceiver","type":"error"},{"inputs":[{"internalType":"address","name":"sender","type":"address"}],"name":"ERC20InvalidSender","type":"error"},{"inputs":[{"internalType":"address","name":"spender","type":"address"}],"name":"ERC20InvalidSpender","type":"error"},{"inputs":[],"name":"ReentrancyGuardReentrantCall","type":"error"},{"anonymous":false,"inputs":[{"indexed":true,"internalType":"address","name":"owner","type":"address"},{"indexed":true,"internalType":"address","name":"spender","type":"address"},{"indexed":false,"internalType":"uint256","name":"value","type":"uint256"}],"name":"Approval","type":"event"},{"anonymous":false,"inputs":[{"indexed":true,"internalType":"address","name":"from","type":"address"},{"indexed":true,"internalType":"address","name":"to","type":"address"},{"indexed":false,"internalType":"uint256","name":"value","type":"uint256"}],"name":"Transfer","type":"event"},{"anonymous":false,"inputs":[{"indexed":true,"internalType":"address","name":"from","type":"address"},{"indexed":true,"internalType":"address","name":"to","type":"address"},{"indexed":false,"internalType":"uint256","name":"amount","type":"uint256"},{"indexed":false,"internalType":"uint256","name":"taxAmount","type":"uint256"}],"name":"TransferWithTax","type":"event"},{"inputs":[],"name":"MAX_TAX_RECIPIENTS","outputs":[{"internalType":"uint256","name":"","type":"uint256"}],"stateMutability":"view","type":"function"},{"inputs":[{"internalType":"address","name":"owner","type":"address"},{"internalType":"address","name":"spender","type":"address"}],"name":"allowance","outputs":[{"internalType":"uint256","name":"","type":"uint256"}],"stateMutability":"view","type":"function"},{"inputs":[],"name":"antiBotEnabled","outputs":[{"internalType":"bool","name":"","type":"bool"}],"stateMutability":"view","type":"function"},{"inputs":[],"name":"antiWhaleEnabled","outputs":[{"internalType":"bool","name":"","type":"bool"}],"stateMutability":"view","type":"function"},{"inputs":[{"internalType":"address","name":"spender","type":"address"},{"internalType":"uint256","name":"value","type":"uint256"}],"name":"approve","outputs":[{"internalType":"bool","name":"","type":"bool"}],"stateMutability":"nonpayable","type":"function"},{"inputs":[{"internalType":"address","name":"account","type":"address"}],"name":"balanceOf","outputs":[{"internalType":"uint256","name":"","type":"uint256"}],"stateMutability":"view","type":"function"},{"inputs":[],"name":"creator","outputs":[{"internalType":"address","name":"","type":"address"}],"stateMutability":"view","type":"function"},{"inputs":[],"name":"decimals","outputs":[{"internalType":"uint8","name":"","type":"uint8"}],"stateMutability":"view","type":"function"},{"inputs":[{"internalType":"uint256","name":"index","type":"uint256"}],"name":"getTaxRecipient","outputs":[{"internalType":"address","name":"","type":"address"},{"internalType":"uint256","name":"","type":"uint256"},{"internalType":"bool","name":"","type":"bool"}],"stateMutability":"view","type":"function"},{"inputs":[],"name":"getTaxRecipientsCount","outputs":[{"internalType":"uint256","name":"","type":"uint256"}],"stateMutability":"view","type":"function"},{"inputs":[{"internalType":"address","name":"","type":"address"}],"name":"isTaxExempt","outputs":[{"internalType":"bool","name":"","type":"bool"}],"stateMutability":"view","type":"function"},{"inputs":[{"internalType":"address","name":"","type":"address"}],"name":"isWhaleExempt","outputs":[{"internalType":"bool","name":"","type":"bool"}],"stateMutability":"view","type":"function"},{"inputs":[],"name":"maxTxAmount","outputs":[{"internalType":"uint256","name":"","type":"uint256"}],"stateMutability":"view","type":"function"},{"inputs":[],"name":"name","outputs":[{"internalType":"string","name":"","type":"string"}],"stateMutability":"view","type":"function"},{"inputs":[],"name":"symbol","outputs":[{"internalType":"string","name":"","type":"string"}],"stateMutability":"view","type":"function"},{"inputs":[],"name":"taxEnabled","outputs":[{"internalType":"bool","name":"","type":"bool"}],"stateMutability":"view","type":"function"},{"inputs":[{"internalType":"uint256","name":"","type":"uint256"}],"name":"taxRecipients","outputs":[{"internalType":"address","name":"recipient","type":"address"},{"internalType":"uint256","name":"percentage","type":"uint256"},{"internalType":"bool","name":"isContract","type":"bool"}],"stateMutability":"view","type":"function"},{"inputs":[],"name":"totalSupply","outputs":[{"internalType":"uint256","name":"","type":"uint256"}],"stateMutability":"view","type":"function"},{"inputs":[],"name":"totalTaxPercentage","outputs":[{"internalType":"uint256","name":"","type":"uint256"}],"stateMutability":"view","type":"function"},{"inputs":[{"internalType":"address","name":"to","type":"address"},{"internalType":"uint256","name":"amount","type":"uint256"}],"name":"transfer","outputs":[{"internalType":"bool","name":"","type":"bool"}],"stateMutability":"nonpayable","type":"function"},{"inputs":[{"internalType":"address","name":"from","type":"address"},{"internalType":"address","name":"to","type":"address"},{"internalType":"uint256","name":"amount","type":"uint256"}],"name":"transferFrom","outputs":[{"internalType":"bool","name":"","type":"bool"}],"stateMutability":"nonpayable","type":"function"}],"evm":{"bytecode":{"linkReferences":{},"object":"6101406040523462000993576200199280380390816200001f81620009b6565b91823961014081838101031262000993576200003b81620009dc565b60208201519092906001600160401b03811162000993576200006390828401908401620009f1565b60408301519093906001600160401b03811162000993576200008b90838501908501620009f1565b90606084015190620000a06080860162000a63565b92620000af60a0870162000a63565b60c087015191620000c360e0890162000a63565b6101008901519099906001600160401b0381116200099357890197808a01601f8a0112156200099357885162000103620000fd8262000a71565b620009b6565b9960208b8381520190838d0160208460051b8301011162000993579060208201915b60208460051b82010183106200099857505050506101208a0151906001600160401b0382116200099357808b01601f838d010112156200099357818b01519162000173620000fd8462000a71565b9b60208d8581520192810160208560051b848401010111620009935780820160200192915b60208560051b828401010184106200097e5750508351939250506001600160401b0383119050620004785760035490600182811c9216801562000973575b6020831014620008495781601f84931162000901575b50602090601f831160011462000876576000926200086a575b50508160011b916000199060031b1c1916176003555b8051906001600160401b038211620004785760045490600182811c921680156200085f575b6020831014620008495781601f849311620007d7575b50602090601f831160011462000748576000926200073c575b50508160011b916000199060031b1c1916176004555b60016005558551875103620006f757600a865111620006b257600094836101205260018060a01b0384168652600760205260408620600160ff19825416179055600860205260408620600160ff1982541617905530865260408620600160ff19825416179055855b875187101562000522576001600160a01b036200030b888a62000a89565b511615620004dd576200031f878a62000a89565b51156200048e576200033f9062000337888b62000a89565b519062000a9e565b956001600160a01b0362000354828a62000a89565b511663ffffffff813b1615156200036c838c62000a89565b5160405191906001600160401b0360608401908111908411176200047857606083016040528383526020830152604082015260065468010000000000000000811015620004785760018101806006558110156200046257600260409160066000526003602060002091020160018060a01b0384511660018060a01b03198254161781556020840151600182015501910151151560ff8019835416911617905560005260076020526040600020600160ff1982541617905560086020526040600020600160ff1982541617905560001981146200044c5760010195620002ed565b634e487b7160e01b600052601160045260246000fd5b634e487b7160e01b600052603260045260246000fd5b634e487b7160e01b600052604160045260246000fd5b60405162461bcd60e51b815260206004820152602160248201527f50657263656e74616765206d7573742062652067726561746572207468616e206044820152600360fc1b6064820152608490fd5b60405162461bcd60e51b815260206004820152601960248201527f496e76616c696420726563697069656e742061646472657373000000000000006044820152606490fd5b899088606482116200066d578160e0528262000661575b508162000656575b506101005260805260a05260c0526001600160a01b038116156200063d577fddf252ad1be2c89b69c2b068fc378daa952ba7f163c4a11628f55a4df523b3ef6020600092620005938560025462000a9e565b6002556001600160a01b031680845283825260408085208054870190555194855293a3604051610ee5908162000aad82396080518181816101a80152610d4b015260a05181818161058e0152610d71015260c05181818161040a0152610da8015260e0518181816101220152818161022e0152818161070f0152610cad0152610100518181816101fa0152818161044501526106b4015261012051818181610a4c0152610c680152f35b60405163ec442f0560e01b815260006004820152602490fd5b905015158662000541565b51151591508762000539565b60405162461bcd60e51b815260206004820152601c60248201527f546f74616c207461782063616e6e6f74206578636565642031303025000000006044820152606490fd5b60405162461bcd60e51b815260206004820152601760248201527f546f6f206d616e792074617820726563697069656e74730000000000000000006044820152606490fd5b60405162461bcd60e51b815260206004820152601560248201527f4d69736d617463686564207461782061727261797300000000000000000000006044820152606490fd5b0151905038806200026f565b6004600090815293507f8a35acfbc15ff81a39ae7d344fd709f28e8600b4aa8c65c6b64bfe7fe36bd19b91905b601f1984168510620007bb576001945083601f19811610620007a1575b505050811b0160045562000285565b015160001960f88460031b161c1916905538808062000792565b8181015183556020948501946001909301929091019062000775565b60046000529091507f8a35acfbc15ff81a39ae7d344fd709f28e8600b4aa8c65c6b64bfe7fe36bd19b601f840160051c81016020851062000841575b90849392915b601f830160051c820181106200083157505062000256565b6000815585945060010162000819565b508062000813565b634e487b7160e01b600052602260045260246000fd5b91607f169162000240565b01519050388062000205565b600360009081527fc2575a0e9e593c00f959f8c92f12db2869c3395a3b0502d05e2516446f71f85b9350601f198516905b818110620008e85750908460019594939210620008ce575b505050811b016003556200021b565b015160001960f88460031b161c19169055388080620008bf565b92936020600181928786015181550195019301620008a7565b60036000529091507fc2575a0e9e593c00f959f8c92f12db2869c3395a3b0502d05e2516446f71f85b601f840160051c8101602085106200096b575b90849392915b601f830160051c820181106200095b575050620001ec565b6000815585945060010162000943565b50806200093d565b91607f1691620001d6565b60208080948651815201940193925062000198565b600080fd5b6020808093620009a886620009dc565b815201930192915062000125565b6040519190601f01601f191682016001600160401b038111838210176200047857604052565b51906001600160a01b03821682036200099357565b919080601f84011215620009935782516001600160401b038111620004785760209062000a27601f8201601f19168301620009b6565b92818452828287010111620009935760005b81811062000a4f57508260009394955001015290565b858101830151848201840152820162000a39565b519081151582036200099357565b6001600160401b038111620004785760051b60200190565b8051821015620004625760209160051b010190565b919082018092116200044c5756fe608060408181526004918236101561001657600080fd5b600092833560e01c91826302d05d3f14610a385750816306fdde031461095e578163095ea7b3146108b0578163125cac3e1461087257816316c2be6b1461083457816318160ddd1461081557816323b872dd1461064e578163301b18de146105ee578163313ce567146105d25781633da0730a146105b357816357d87f0d1461057657816367b0c79f146104bd57816367b675a5146104a157816370a082311461046a578163870bd30b1461042d5781638c0b5e22146103f257816395d89b41146102d357508063a9059cbb146101cd578063d8c6404b14610191578063dd62ed3e146101495763fff5a9fb1461010c57600080fd5b34610145578160031936011261014557602090517f00000000000000000000000000000000000000000000000000000000000000008152f35b5080fd5b503461014557806003193601126101455780602092610166610ac4565b61016e610adf565b6001600160a01b0391821683526001865283832091168252845220549051908152f35b5034610145578160031936011261014557602090517f000000000000000000000000000000000000000000000000000000000000000015158152f35b50346101455780600319360112610145576020906101e9610ac4565b602435906101f8828233610d48565b7f0000000000000000000000000000000000000000000000000000000000000000806102c3575b156102b35761025b60646102537f000000000000000000000000000000000000000000000000000000000000000085610b46565b048093610b6f565b91610267838333610b7c565b6102718133610ca8565b8351928352848301526001600160a01b03169033907f6d2113f8bd5342f6e43e5be71ffa1b2f8d07c3c24185fc9d1c3b77785265e5b5908490a35b5160018152f35b906102be9133610b7c565b6102ac565b506102cd33610c5a565b1561021f565b838334610145578160031936011261014557805190828454600181811c908083169283156103e8575b60209384841081146103d5578388529081156103b95750600114610364575b505050829003601f01601f191682019267ffffffffffffffff841183851017610351575082918261034d925282610a7b565b0390f35b634e487b7160e01b815260418552602490fd5b8787529192508591837f8a35acfbc15ff81a39ae7d344fd709f28e8600b4aa8c65c6b64bfe7fe36bd19b5b8385106103a5575050505083010185808061031b565b80548886018301529301928490820161038f565b60ff1916878501525050151560051b840101905085808061031b565b634e487b7160e01b895260228a52602489fd5b91607f16916102fc565b505034610145578160031936011261014557602090517f00000000000000000000000000000000000000000000000000000000000000008152f35b505034610145578160031936011261014557602090517f000000000000000000000000000000000000000000000000000000000000000015158152f35b5050346101455760203660031901126101455760209181906001600160a01b03610492610ac4565b16815280845220549051908152f35b50503461014557816003193601126101455760209051600a8152f35b8284346105735760203660031901126105735750813591600654831015610541575061034d6104eb83610af5565b50546001600160a01b03169160ff6002610512600161050988610af5565b50015496610af5565b50015491516001600160a01b039094168452602084019490945292909216151560408201529081906060820190565b6020606492519162461bcd60e51b8352820152600d60248201526c092dcecc2d8d2c840d2dcc8caf609b1b6044820152fd5b80fd5b505034610145578160031936011261014557602090517f000000000000000000000000000000000000000000000000000000000000000015158152f35b5050346101455781600319360112610145576020906006549051908152f35b5050346101455781600319360112610145576020905160128152f35b83915034610145576020366003190112610145573590600654821015610573575061061890610af5565b508054600182015460029092015492516001600160a01b039091168152602081019190915260ff90911615156040820152606090f35b82843461057357606036600319011261057357610669610ac4565b610671610adf565b918360443593610682858286610d48565b60018060a01b03908185169384815260209860018a528482203383528a5284822054906000198210610780575b5050507f000000000000000000000000000000000000000000000000000000000000000080610770575b156107625761073e61074f7f6d2113f8bd5342f6e43e5be71ffa1b2f8d07c3c24185fc9d1c3b77785265e5b595969760646107347f000000000000000000000000000000000000000000000000000000000000000083610b46565b0492838092610b6f565b9861074a8a8683610b7c565b610ca8565b8351968752888701521693a35160018152f35b925050506102be9291610b7c565b5061077a85610c5a565b156106d9565b9091929394508782106107ea5785156107d35733156107bc57509087878195949387845260018c528284203385528c52039120558880806106af565b8851634a1406b160e11b8152908101839052602490fd5b885163e602df0560e01b8152908101839052602490fd5b8851637dc7a0d960e11b81523391810191825260208201929092526040810188905281906060010390fd5b5050346101455781600319360112610145576020906002549051908152f35b5050346101455760203660031901126101455760209160ff9082906001600160a01b0361085f610ac4565b1681526007855220541690519015158152f35b5050346101455760203660031901126101455760209160ff9082906001600160a01b0361089d610ac4565b1681526008855220541690519015158152f35b90503461095a578160031936011261095a576108ca610ac4565b602435903315610943576001600160a01b031691821561092c57508083602095338152600187528181208582528752205582519081527f8c5be1e5ebec7d5bd14f71427d1e84f3dd0314c0f7b2291e5b200ac8c7c3b925843392a35160018152f35b8351634a1406b160e11b8152908101859052602490fd5b835163e602df0560e01b8152808401869052602490fd5b8280fd5b83833461014557816003193601126101455780519082600354600181811c90808316928315610a2e575b60209384841081146103d5578388529081156103b957506001146109d857505050829003601f01601f191682019267ffffffffffffffff841183851017610351575082918261034d925282610a7b565b600387529192508591837fc2575a0e9e593c00f959f8c92f12db2869c3395a3b0502d05e2516446f71f85b5b838510610a1a575050505083010185808061031b565b805488860183015293019284908201610a04565b91607f1691610988565b8490346101455781600319360112610145577f00000000000000000000000000000000000000000000000000000000000000006001600160a01b03168152602090f35b6020808252825181830181905290939260005b828110610ab057505060409293506000838284010152601f8019910116010190565b818101860151848201604001528501610a8e565b600435906001600160a01b0382168203610ada57565b600080fd5b602435906001600160a01b0382168203610ada57565b600654811015610b30576003906006600052027ff652222313e28459528d920b65115c16c04f3efc82aaedc97be59f3f377c0d3f0190600090565b634e487b7160e01b600052603260045260246000fd5b81810292918115918404141715610b5957565b634e487b7160e01b600052601160045260246000fd5b91908203918211610b5957565b916001600160a01b03808416928315610c415716928315610c285760009083825281602052604082205490838210610bf6575091604082827fddf252ad1be2c89b69c2b068fc378daa952ba7f163c4a11628f55a4df523b3ef958760209652828652038282205586815220818154019055604051908152a3565b60405163391434e360e21b81526001600160a01b03919091166004820152602481019190915260448101839052606490fd5b60405163ec442f0560e01b815260006004820152602490fd5b604051634b637e8f60e11b815260006004820152602490fd5b6001600160a01b03908116907f0000000000000000000000000000000000000000000000000000000000000000168114610ca257600052600760205260ff6040600020541690565b50600190565b6000907f0000000000000000000000000000000000000000000000000000000000000000928315925b600654811015610d415783610cf36001610cea84610af5565b50015484610b46565b90610d2b57610d1a9086610d0684610af5565b50549104906001600160a01b031685610b7c565b6000198114610b5957600101610cd1565b634e487b7160e01b600052601260045260246000fd5b5050505050565b907f0000000000000000000000000000000000000000000000000000000000000000610e53575b7f00000000000000000000000000000000000000000000000000000000000000009182610e2f575b5081610e0b575b50610da65750565b7f000000000000000000000000000000000000000000000000000000000000000010610dce57565b60405162461bcd60e51b8152602060048201526015602482015274115e18d959591cc81b585e081d1e08185b5bdd5b9d605a1b6044820152606490fd5b6001600160a01b031660009081526008602052604090205460ff1615905038610d9e565b6001600160a01b031660009081526008602052604090205460ff1615915038610d97565b6001600160a01b0382811615159081610ea3575b50610d6f5760405162461bcd60e51b815260206004820152600f60248201526e496e76616c6964206164647265737360881b6044820152606490fd5b90508116151538610e6756fea2646970667358221220d9f8a3071fd1823ce185e6addbeed29c09a74198e28b19f21d187e6b95b07d6064736f6c63430008140033","opcodes":"PUSH2 0x140 PUSH1 0x40 MSTORE CALLVALUE PUSH3 0x993 JUMPI PUSH3 0x1992 DUP1 CODESIZE SUB SWAP1 DUP2 PUSH3 0x1F DUP2 PUSH3 0x9B6 JUMP JUMPDEST SWAP2 DUP3 CODECOPY PUSH2 0x140 DUP2 DUP4 DUP2 ADD SUB SLT PUSH3 0x993 JUMPI PUSH3 0x3B DUP2 PUSH3 0x9DC JUMP JUMPDEST PUSH1 0x20 DUP3 ADD MLOAD SWAP1 SWAP3 SWAP1 PUSH1 0x1 PUSH1 0x1 PUSH1 0x40 SHL SUB DUP2 GT PUSH3 0x993 JUMPI PUSH3 0x63 SWAP1 DUP3 DUP5 ADD SWAP1 DUP5 ADD PUSH3 0x9F1 JUMP JUMPDEST PUSH1 0x40 DUP4 ADD MLOAD SWAP1 SWAP4 SWAP1 PUSH1 0x1 PUSH1 0x1 PUSH1 0x40 SHL SUB DUP2 GT PUSH3 0x993 JUMPI PUSH3 0x8B SWAP1 DUP4 DUP6 ADD SWAP1 DUP6 ADD PUSH3 0x9F1 JUMP JUMPDEST SWAP1 PUSH1 0x60 DUP5 ADD MLOAD SWAP1 PUSH3 0xA0 PUSH1 0x80 DUP7 ADD PUSH3 0xA63 JUMP JUMPDEST SWAP3 PUSH3 0xAF PUSH1 0xA0 DUP8 ADD PUSH3 0xA63 JUMP JUMPDEST PUSH1 0xC0 DUP8 ADD MLOAD SWAP2 PUSH3 0xC3 PUSH1 0xE0 DUP10 ADD PUSH3 0xA63 JUMP JUMPDEST PUSH2 0x100 DUP10 ADD MLOAD SWAP1 SWAP10 SWAP1 PUSH1 0x1 PUSH1 0x1 PUSH1 0x40 SHL SUB DUP2 GT PUSH3 0x993 JUMPI DUP10 ADD SWAP8 DUP1 DUP11 ADD PUSH1 0x1F DUP11 ADD SLT ISZERO PUSH3 0x993 JUMPI DUP9 MLOAD PUSH3 0x103 PUSH3 0xFD DUP3 PUSH3 0xA71 JUMP JUMPDEST PUSH3 0x9B6 JUMP JUMPDEST SWAP10 PUSH1 0x20 DUP12 DUP4 DUP2 MSTORE ADD SWAP1 DUP4 DUP14 ADD PUSH1 0x20 DUP5 PUSH1 0x5 SHL DUP4 ADD ADD GT PUSH3 0x993 JUMPI SWAP1 PUSH1 0x20 DUP3 ADD SWAP2 JUMPDEST PUSH1 0x20 DUP5 PUSH1 0x5 SHL DUP3 ADD ADD DUP4 LT PUSH3 0x998 JUMPI POP POP POP POP PUSH2 0x120 DUP11 ADD MLOAD SWAP1 PUSH1 0x1 PUSH1 0x1 PUSH1 0x40 SHL SUB DUP3 GT PUSH3 0x993 JUMPI DUP1 DUP12 ADD PUSH1 0x1F DUP4 DUP14 ADD ADD SLT ISZERO PUSH3 0x993 JUMPI DUP2 DUP12 ADD MLOAD SWAP2 PUSH3 0x173 PUSH3 0xFD DUP5 PUSH3 0xA71 JUMP JUMPDEST SWAP12 PUSH1 0x20 DUP14 DUP6 DUP2 MSTORE ADD SWAP3 DUP2 ADD PUSH1 0x20 DUP6 PUSH1 0x5 SHL DUP5 DUP5 ADD ADD ADD GT PUSH3 0x993 JUMPI DUP1 DUP3 ADD PUSH1 0x20 ADD SWAP3 SWAP2 JUMPDEST PUSH1 0x20 DUP6 PUSH1 0x5 SHL DUP3 DUP5 ADD ADD ADD DUP5 LT PUSH3 0x97E JUMPI POP POP DUP4 MLOAD SWAP4 SWAP3 POP POP PUSH1 0x1 PUSH1 0x1 PUSH1 0x40 SHL SUB DUP4 GT SWAP1 POP PUSH3 0x478 JUMPI PUSH1 0x3 SLOAD SWAP1 PUSH1 0x1 DUP3 DUP2 SHR SWAP3 AND DUP1 ISZERO PUSH3 0x973 JUMPI JUMPDEST PUSH1 0x20 DUP4 LT EQ PUSH3 0x849 JUMPI DUP2 PUSH1 0x1F DUP5 SWAP4 GT PUSH3 0x901 JUMPI JUMPDEST POP PUSH1 0x20 SWAP1 PUSH1 0x1F DUP4 GT PUSH1 0x1 EQ PUSH3 0x876 JUMPI PUSH1 0x0 SWAP3 PUSH3 0x86A JUMPI JUMPDEST POP POP DUP2 PUSH1 0x1 SHL SWAP2 PUSH1 0x0 NOT SWAP1 PUSH1 0x3 SHL SHR NOT AND OR PUSH1 0x3 SSTORE JUMPDEST DUP1 MLOAD SWAP1 PUSH1 0x1 PUSH1 0x1 PUSH1 0x40 SHL SUB DUP3 GT PUSH3 0x478 JUMPI PUSH1 0x4 SLOAD SWAP1 PUSH1 0x1 DUP3 DUP2 SHR SWAP3 AND DUP1 ISZERO PUSH3 0x85F JUMPI JUMPDEST PUSH1 0x20 DUP4 LT EQ PUSH3 0x849 JUMPI DUP2 PUSH1 0x1F DUP5 SWAP4 GT PUSH3 0x7D7 JUMPI JUMPDEST POP PUSH1 0x20 SWAP1 PUSH1 0x1F DUP4 GT PUSH1 0x1 EQ PUSH3 0x748 JUMPI PUSH1 0x0 SWAP3 PUSH3 0x73C JUMPI JUMPDEST POP POP DUP2 PUSH1 0x1 SHL SWAP2 PUSH1 0x0 NOT SWAP1 PUSH1 0x3 SHL SHR NOT AND OR PUSH1 0x4 SSTORE JUMPDEST PUSH1 0x1 PUSH1 0x5 SSTORE DUP6 MLOAD DUP8 MLOAD SUB PUSH3 0x6F7 JUMPI PUSH1 0xA DUP7 MLOAD GT PUSH3 0x6B2 JUMPI PUSH1 0x0 SWAP5 DUP4 PUSH2 0x120 MSTORE PUSH1 0x1 DUP1 PUSH1 0xA0 SHL SUB DUP5 AND DUP7 MSTORE PUSH1 0x7 PUSH1 0x20 MSTORE PUSH1 0x40 DUP7 KECCAK256 PUSH1 0x1 PUSH1 0xFF NOT DUP3 SLOAD AND OR SWAP1 SSTORE PUSH1 0x8 PUSH1 0x20 MSTORE PUSH1 0x40 DUP7 KECCAK256 PUSH1 0x1 PUSH1 0xFF NOT DUP3 SLOAD AND OR SWAP1 SSTORE ADDRESS DUP7 MSTORE PUSH1 0x40 DUP7 KECCAK256 PUSH1 0x1 PUSH1 0xFF NOT DUP3 SLOAD AND OR SWAP1 SSTORE DUP6 JUMPDEST DUP8 MLOAD DUP8 LT ISZERO PUSH3 0x522 JUMPI PUSH1 0x1 PUSH1 0x1 PUSH1 0xA0 SHL SUB PUSH3 0x30B DUP9 DUP11 PUSH3 0xA89 JUMP JUMPDEST MLOAD AND ISZERO PUSH3 0x4DD JUMPI PUSH3 0x31F DUP8 DUP11 PUSH3 0xA89 JUMP JUMPDEST MLOAD ISZERO PUSH3 0x48E JUMPI PUSH3 0x33F SWAP1 PUSH3 0x337 DUP9 DUP12 PUSH3 0xA89 JUMP JUMPDEST MLOAD SWAP1 PUSH3 0xA9E JUMP JUMPDEST SWAP6 PUSH1 0x1 PUSH1 0x1 PUSH1 0xA0 SHL SUB PUSH3 0x354 DUP3 DUP11 PUSH3 0xA89 JUMP JUMPDEST MLOAD AND PUSH4 0xFFFFFFFF DUP2 EXTCODESIZE AND ISZERO ISZERO PUSH3 0x36C DUP4 DUP13 PUSH3 0xA89 JUMP JUMPDEST MLOAD PUSH1 0x40 MLOAD SWAP2 SWAP1 PUSH1 0x1 PUSH1 0x1 PUSH1 0x40 SHL SUB PUSH1 0x60 DUP5 ADD SWAP1 DUP2 GT SWAP1 DUP5 GT OR PUSH3 0x478 JUMPI PUSH1 0x60 DUP4 ADD PUSH1 0x40 MSTORE DUP4 DUP4 MSTORE PUSH1 0x20 DUP4 ADD MSTORE PUSH1 0x40 DUP3 ADD MSTORE PUSH1 0x6 SLOAD PUSH9 0x10000000000000000 DUP2 LT ISZERO PUSH3 0x478 JUMPI PUSH1 0x1 DUP2 ADD DUP1 PUSH1 0x6 SSTORE DUP2 LT ISZERO PUSH3 0x462 JUMPI PUSH1 0x2 PUSH1 0x40 SWAP2 PUSH1 0x6 PUSH1 0x0 MSTORE PUSH1 0x3 PUSH1 0x20 PUSH1 0x0 KECCAK256 SWAP2 MUL ADD PUSH1 0x1 DUP1 PUSH1 0xA0 SHL SUB DUP5 MLOAD AND PUSH1 0x1 DUP1 PUSH1 0xA0 SHL SUB NOT DUP3 SLOAD AND OR DUP2 SSTORE PUSH1 0x20 DUP5 ADD MLOAD PUSH1 0x1 DUP3 ADD SSTORE ADD SWAP2 ADD MLOAD ISZERO ISZERO PUSH1 0xFF DUP1 NOT DUP4 SLOAD AND SWAP2 AND OR SWAP1 SSTORE PUSH1 0x0 MSTORE PUSH1 0x7 PUSH1 0x20 MSTORE PUSH1 0x40 PUSH1 0x0 KECCAK256 PUSH1 0x1 PUSH1 0xFF NOT DUP3 SLOAD AND OR SWAP1 SSTORE PUSH1 0x8 PUSH1 0x20 MSTORE PUSH1 0x40 PUSH1 0x0 KECCAK256 PUSH1 0x1 PUSH1 0xFF NOT DUP3 SLOAD AND OR SWAP1 SSTORE PUSH1 0x0 NOT DUP2 EQ PUSH3 0x44C JUMPI PUSH1 0x1 ADD SWAP6 PUSH3 0x2ED JUMP JUMPDEST PUSH4 0x4E487B71 PUSH1 0xE0 SHL PUSH1 0x0 MSTORE PUSH1 0x11 PUSH1 0x4 MSTORE PUSH1 0x24 PUSH1 0x0 REVERT JUMPDEST PUSH4 0x4E487B71 PUSH1 0xE0 SHL PUSH1 0x0 MSTORE PUSH1 0x32 PUSH1 0x4 MSTORE PUSH1 0x24 PUSH1 0x0 REVERT JUMPDEST PUSH4 0x4E487B71 PUSH1 0xE0 SHL PUSH1 0x0 MSTORE PUSH1 0x41 PUSH1 0x4 MSTORE PUSH1 0x24 PUSH1 0x0 REVERT JUMPDEST PUSH1 0x40 MLOAD PUSH3 0x461BCD PUSH1 0xE5 SHL DUP2 MSTORE PUSH1 0x20 PUSH1 0x4 DUP3 ADD MSTORE PUSH1 0x21 PUSH1 0x24 DUP3 ADD MSTORE PUSH32 0x50657263656E74616765206D7573742062652067726561746572207468616E20 PUSH1 0x44 DUP3 ADD MSTORE PUSH1 0x3 PUSH1 0xFC SHL PUSH1 0x64 DUP3 ADD MSTORE PUSH1 0x84 SWAP1 REVERT JUMPDEST PUSH1 0x40 MLOAD PUSH3 0x461BCD PUSH1 0xE5 SHL DUP2 MSTORE PUSH1 0x20 PUSH1 0x4 DUP3 ADD MSTORE PUSH1 0x19 PUSH1 0x24 DUP3 ADD MSTORE PUSH32 0x496E76616C696420726563697069656E74206164647265737300000000000000 PUSH1 0x44 DUP3 ADD MSTORE PUSH1 0x64 SWAP1 REVERT JUMPDEST DUP10 SWAP1 DUP9 PUSH1 0x64 DUP3 GT PUSH3 0x66D JUMPI DUP2 PUSH1 0xE0 MSTORE DUP3 PUSH3 0x661 JUMPI JUMPDEST POP DUP2 PUSH3 0x656 JUMPI JUMPDEST POP PUSH2 0x100 MSTORE PUSH1 0x80 MSTORE PUSH1 0xA0 MSTORE PUSH1 0xC0 MSTORE PUSH1 0x1 PUSH1 0x1 PUSH1 0xA0 SHL SUB DUP2 AND ISZERO PUSH3 0x63D JUMPI PUSH32 0xDDF252AD1BE2C89B69C2B068FC378DAA952BA7F163C4A11628F55A4DF523B3EF PUSH1 0x20 PUSH1 0x0 SWAP3 PUSH3 0x593 DUP6 PUSH1 0x2 SLOAD PUSH3 0xA9E JUMP JUMPDEST PUSH1 0x2 SSTORE PUSH1 0x1 PUSH1 0x1 PUSH1 0xA0 SHL SUB AND DUP1 DUP5 MSTORE DUP4 DUP3 MSTORE PUSH1 0x40 DUP1 DUP6 KECCAK256 DUP1 SLOAD DUP8 ADD SWAP1 SSTORE MLOAD SWAP5 DUP6 MSTORE SWAP4 LOG3 PUSH1 0x40 MLOAD PUSH2 0xEE5 SWAP1 DUP2 PUSH3 0xAAD DUP3 CODECOPY PUSH1 0x80 MLOAD DUP2 DUP2 DUP2 PUSH2 0x1A8 ADD MSTORE PUSH2 0xD4B ADD MSTORE PUSH1 0xA0 MLOAD DUP2 DUP2 DUP2 PUSH2 0x58E ADD MSTORE PUSH2 0xD71 ADD MSTORE PUSH1 0xC0 MLOAD DUP2 DUP2 DUP2 PUSH2 0x40A ADD MSTORE PUSH2 0xDA8 ADD MSTORE PUSH1 0xE0 MLOAD DUP2 DUP2 DUP2 PUSH2 0x122 ADD MSTORE DUP2 DUP2 PUSH2 0x22E ADD MSTORE DUP2 DUP2 PUSH2 0x70F ADD MSTORE PUSH2 0xCAD ADD MSTORE PUSH2 0x100 MLOAD DUP2 DUP2 DUP2 PUSH2 0x1FA ADD MSTORE DUP2 DUP2 PUSH2 0x445 ADD MSTORE PUSH2 0x6B4 ADD MSTORE PUSH2 0x120 MLOAD DUP2 DUP2 DUP2 PUSH2 0xA4C ADD MSTORE PUSH2 0xC68 ADD MSTORE RETURN JUMPDEST PUSH1 0x40 MLOAD PUSH4 0xEC442F05 PUSH1 0xE0 SHL DUP2 MSTORE PUSH1 0x0 PUSH1 0x4 DUP3 ADD MSTORE PUSH1 0x24 SWAP1 REVERT JUMPDEST SWAP1 POP ISZERO ISZERO DUP7 PUSH3 0x541 JUMP JUMPDEST MLOAD ISZERO ISZERO SWAP2 POP DUP8 PUSH3 0x539 JUMP JUMPDEST PUSH1 0x40 MLOAD PUSH3 0x461BCD PUSH1 0xE5 SHL DUP2 MSTORE PUSH1 0x20 PUSH1 0x4 DUP3 ADD MSTORE PUSH1 0x1C PUSH1 0x24 DUP3 ADD MSTORE PUSH32 0x546F74616C207461782063616E6E6F7420657863656564203130302500000000 PUSH1 0x44 DUP3 ADD MSTORE PUSH1 0x64 SWAP1 REVERT JUMPDEST PUSH1 0x40 MLOAD PUSH3 0x461BCD PUSH1 0xE5 SHL DUP2 MSTORE PUSH1 0x20 PUSH1 0x4 DUP3 ADD MSTORE PUSH1 0x17 PUSH1 0x24 DUP3 ADD MSTORE PUSH32 0x546F6F206D616E792074617820726563697069656E7473000000000000000000 PUSH1 0x44 DUP3 ADD MSTORE PUSH1 0x64 SWAP1 REVERT JUMPDEST PUSH1 0x40 MLOAD PUSH3 0x461BCD PUSH1 0xE5 SHL DUP2 MSTORE PUSH1 0x20 PUSH1 0x4 DUP3 ADD MSTORE PUSH1 0x15 PUSH1 0x24 DUP3 ADD MSTORE PUSH32 0x4D69736D61746368656420746178206172726179730000000000000000000000 PUSH1 0x44 DUP3 ADD MSTORE PUSH1 0x64 SWAP1 REVERT JUMPDEST ADD MLOAD SWAP1 POP CODESIZE DUP1 PUSH3 0x26F JUMP JUMPDEST PUSH1 0x4 PUSH1 0x0 SWAP1 DUP2 MSTORE SWAP4 POP PUSH32 0x8A35ACFBC15FF81A39AE7D344FD709F28E8600B4AA8C65C6B64BFE7FE36BD19B SWAP2 SWAP1 JUMPDEST PUSH1 0x1F NOT DUP5 AND DUP6 LT PUSH3 0x7BB JUMPI PUSH1 0x1 SWAP5 POP DUP4 PUSH1 0x1F NOT DUP2 AND LT PUSH3 0x7A1 JUMPI JUMPDEST POP POP POP DUP2 SHL ADD PUSH1 0x4 SSTORE PUSH3 0x285 JUMP JUMPDEST ADD MLOAD PUSH1 0x0 NOT PUSH1 0xF8 DUP5 PUSH1 0x3 SHL AND SHR NOT AND SWAP1 SSTORE CODESIZE DUP1 DUP1 PUSH3 0x792 JUMP JUMPDEST DUP2 DUP2 ADD MLOAD DUP4 SSTORE PUSH1 0x20 SWAP5 DUP6 ADD SWAP5 PUSH1 0x1 SWAP1 SWAP4 ADD SWAP3 SWAP1 SWAP2 ADD SWAP1 PUSH3 0x775 JUMP JUMPDEST PUSH1 0x4 PUSH1 0x0 MSTORE SWAP1 SWAP2 POP PUSH32 0x8A35ACFBC15FF81A39AE7D344FD709F28E8600B4AA8C65C6B64BFE7FE36BD19B PUSH1 0x1F DUP5 ADD PUSH1 0x5 SHR DUP2 ADD PUSH1 0x20 DUP6 LT PUSH3 0x841 JUMPI JUMPDEST SWAP1 DUP5 SWAP4 SWAP3 SWAP2 JUMPDEST PUSH1 0x1F DUP4 ADD PUSH1 0x5 SHR DUP3 ADD DUP2 LT PUSH3 0x831 JUMPI POP POP PUSH3 0x256 JUMP JUMPDEST PUSH1 0x0 DUP2 SSTORE DUP6 SWAP5 POP PUSH1 0x1 ADD PUSH3 0x819 JUMP JUMPDEST POP DUP1 PUSH3 0x813 JUMP JUMPDEST PUSH4 0x4E487B71 PUSH1 0xE0 SHL PUSH1 0x0 MSTORE PUSH1 0x22 PUSH1 0x4 MSTORE PUSH1 0x24 PUSH1 0x0 REVERT JUMPDEST SWAP2 PUSH1 0x7F AND SWAP2 PUSH3 0x240 JUMP JUMPDEST ADD MLOAD SWAP1 POP CODESIZE DUP1 PUSH3 0x205 JUMP JUMPDEST PUSH1 0x3 PUSH1 0x0 SWAP1 DUP2 MSTORE PUSH32 0xC2575A0E9E593C00F959F8C92F12DB2869C3395A3B0502D05E2516446F71F85B SWAP4 POP PUSH1 0x1F NOT DUP6 AND SWAP1 JUMPDEST DUP2 DUP2 LT PUSH3 0x8E8 JUMPI POP SWAP1 DUP5 PUSH1 0x1 SWAP6 SWAP5 SWAP4 SWAP3 LT PUSH3 0x8CE JUMPI JUMPDEST POP POP POP DUP2 SHL ADD PUSH1 0x3 SSTORE PUSH3 0x21B JUMP JUMPDEST ADD MLOAD PUSH1 0x0 NOT PUSH1 0xF8 DUP5 PUSH1 0x3 SHL AND SHR NOT AND SWAP1 SSTORE CODESIZE DUP1 DUP1 PUSH3 0x8BF JUMP JUMPDEST SWAP3 SWAP4 PUSH1 0x20 PUSH1 0x1 DUP2 SWAP3 DUP8 DUP7 ADD MLOAD DUP2 SSTORE ADD SWAP6 ADD SWAP4 ADD PUSH3 0x8A7 JUMP JUMPDEST PUSH1 0x3 PUSH1 0x0 MSTORE SWAP1 SWAP2 POP PUSH32 0xC2575A0E9E593C00F959F8C92F12DB2869C3395A3B0502D05E2516446F71F85B PUSH1 0x1F DUP5 ADD PUSH1 0x5 SHR DUP2 ADD PUSH1 0x20 DUP6 LT PUSH3 0x96B JUMPI JUMPDEST SWAP1 DUP5 SWAP4 SWAP3 SWAP2 JUMPDEST PUSH1 0x1F DUP4 ADD PUSH1 0x5 SHR DUP3 ADD DUP2 LT PUSH3 0x95B JUMPI POP POP PUSH3 0x1EC JUMP JUMPDEST PUSH1 0x0 DUP2 SSTORE DUP6 SWAP5 POP PUSH1 0x1 ADD PUSH3 0x943 JUMP JUMPDEST POP DUP1 PUSH3 0x93D JUMP JUMPDEST SWAP2 PUSH1 0x7F AND SWAP2 PUSH3 0x1D6 JUMP JUMPDEST PUSH1 0x20 DUP1 DUP1 SWAP5 DUP7 MLOAD DUP2 MSTORE ADD SWAP5 ADD SWAP4 SWAP3 POP PUSH3 0x198 JUMP JUMPDEST PUSH1 0x0 DUP1 REVERT JUMPDEST PUSH1 0x20 DUP1 DUP1 SWAP4 PUSH3 0x9A8 DUP7 PUSH3 0x9DC JUMP JUMPDEST DUP2 MSTORE ADD SWAP4 ADD SWAP3 SWAP2 POP PUSH3 0x125 JUMP JUMPDEST PUSH1 0x40 MLOAD SWAP2 SWAP1 PUSH1 0x1F ADD PUSH1 0x1F NOT AND DUP3 ADD PUSH1 0x1 PUSH1 0x1 PUSH1 0x40 SHL SUB DUP2 GT DUP4 DUP3 LT OR PUSH3 0x478 JUMPI PUSH1 0x40 MSTORE JUMP JUMPDEST MLOAD SWAP1 PUSH1 0x1 PUSH1 0x1 PUSH1 0xA0 SHL SUB DUP3 AND DUP3 SUB PUSH3 0x993 JUMPI JUMP JUMPDEST SWAP2 SWAP1 DUP1 PUSH1 0x1F DUP5 ADD SLT ISZERO PUSH3 0x993 JUMPI DUP3 MLOAD PUSH1 0x1 PUSH1 0x1 PUSH1 0x40 SHL SUB DUP2 GT PUSH3 0x478 JUMPI PUSH1 0x20 SWAP1 PUSH3 0xA27 PUSH1 0x1F DUP3 ADD PUSH1 0x1F NOT AND DUP4 ADD PUSH3 0x9B6 JUMP JUMPDEST SWAP3 DUP2 DUP5 MSTORE DUP3 DUP3 DUP8 ADD ADD GT PUSH3 0x993 JUMPI PUSH1 0x0 JUMPDEST DUP2 DUP2 LT PUSH3 0xA4F JUMPI POP DUP3 PUSH1 0x0 SWAP4 SWAP5 SWAP6 POP ADD ADD MSTORE SWAP1 JUMP JUMPDEST DUP6 DUP2 ADD DUP4 ADD MLOAD DUP5 DUP3 ADD DUP5 ADD MSTORE DUP3 ADD PUSH3 0xA39 JUMP JUMPDEST MLOAD SWAP1 DUP2 ISZERO ISZERO DUP3 SUB PUSH3 0x993 JUMPI JUMP JUMPDEST PUSH1 0x1 PUSH1 0x1 PUSH1 0x40 SHL SUB DUP2 GT PUSH3 0x478 JUMPI PUSH1 0x5 SHL PUSH1 0x20 ADD SWAP1 JUMP JUMPDEST DUP1 MLOAD DUP3 LT ISZERO PUSH3 0x462 JUMPI PUSH1 0x20 SWAP2 PUSH1 0x5 SHL ADD ADD SWAP1 JUMP JUMPDEST SWAP2 SWAP1 DUP3 ADD DUP1 SWAP3 GT PUSH3 0x44C JUMPI JUMP INVALID PUSH1 0x80 PUSH1 0x40 DUP2 DUP2 MSTORE PUSH1 0x4 SWAP2 DUP3 CALLDATASIZE LT ISZERO PUSH2 0x16 JUMPI PUSH1 0x0 DUP1 REVERT JUMPDEST PUSH1 0x0 SWAP3 DUP4 CALLDATALOAD PUSH1 0xE0 SHR SWAP2 DUP3 PUSH4 0x2D05D3F EQ PUSH2 0xA38 JUMPI POP DUP2 PUSH4 0x6FDDE03 EQ PUSH2 0x95E JUMPI DUP2 PUSH4 0x95EA7B3 EQ PUSH2 0x8B0 JUMPI DUP2 PUSH4 0x125CAC3E EQ PUSH2 0x872 JUMPI DUP2 PUSH4 0x16C2BE6B EQ PUSH2 0x834 JUMPI DUP2 PUSH4 0x18160DDD EQ PUSH2 0x815 JUMPI DUP2 PUSH4 0x23B872DD EQ PUSH2 0x64E JUMPI DUP2 PUSH4 0x301B18DE EQ PUSH2 0x5EE JUMPI DUP2 PUSH4 0x313CE567 EQ PUSH2 0x5D2 JUMPI DUP2 PUSH4 0x3DA0730A EQ PUSH2 0x5B3 JUMPI DUP2 PUSH4 0x57D87F0D EQ PUSH2 0x576 JUMPI DUP2 PUSH4 0x67B0C79F EQ PUSH2 0x4BD JUMPI DUP2 PUSH4 0x67B675A5 EQ PUSH2 0x4A1 JUMPI DUP2 PUSH4 0x70A08231 EQ PUSH2 0x46A JUMPI DUP2 PUSH4 0x870BD30B EQ PUSH2 0x42D JUMPI DUP2 PUSH4 0x8C0B5E22 EQ PUSH2 0x3F2 JUMPI DUP2 PUSH4 0x95D89B41 EQ PUSH2 0x2D3 JUMPI POP DUP1 PUSH4 0xA9059CBB EQ PUSH2 0x1CD JUMPI DUP1 PUSH4 0xD8C6404B EQ PUSH2 0x191 JUMPI DUP1 PUSH4 0xDD62ED3E EQ PUSH2 0x149 JUMPI PUSH4 0xFFF5A9FB EQ PUSH2 0x10C JUMPI PUSH1 0x0 DUP1 REVERT JUMPDEST CALLVALUE PUSH2 0x145 JUMPI DUP2 PUSH1 0x3 NOT CALLDATASIZE ADD SLT PUSH2 0x145 JUMPI PUSH1 0x20 SWAP1 MLOAD PUSH32 0x0 DUP2 MSTORE RETURN JUMPDEST POP DUP1 REVERT JUMPDEST POP CALLVALUE PUSH2 0x145 JUMPI DUP1 PUSH1 0x3 NOT CALLDATASIZE ADD SLT PUSH2 0x145 JUMPI DUP1 PUSH1 0x20 SWAP3 PUSH2 0x166 PUSH2 0xAC4 JUMP JUMPDEST PUSH2 0x16E PUSH2 0xADF JUMP JUMPDEST PUSH1 0x1 PUSH1 0x1 PUSH1 0xA0 SHL SUB SWAP2 DUP3 AND DUP4 MSTORE PUSH1 0x1 DUP7 MSTORE DUP4 DUP4 KECCAK256 SWAP2 AND DUP3 MSTORE DUP5 MSTORE KECCAK256 SLOAD SWAP1 MLOAD SWAP1 DUP2 MSTORE RETURN JUMPDEST POP CALLVALUE PUSH2 0x145 JUMPI DUP2 PUSH1 0x3 NOT CALLDATASIZE ADD SLT PUSH2 0x145 JUMPI PUSH1 0x20 SWAP1 MLOAD PUSH32 0x0 ISZERO ISZERO DUP2 MSTORE RETURN JUMPDEST POP CALLVALUE PUSH2 0x145 JUMPI DUP1 PUSH1 0x3 NOT CALLDATASIZE ADD SLT PUSH2 0x145 JUMPI PUSH1 0x20 SWAP1 PUSH2 0x1E9 PUSH2 0xAC4 JUMP JUMPDEST PUSH1 0x24 CALLDATALOAD SWAP1 PUSH2 0x1F8 DUP3 DUP3 CALLER PUSH2 0xD48 JUMP JUMPDEST PUSH32 0x0 DUP1 PUSH2 0x2C3 JUMPI JUMPDEST ISZERO PUSH2 0x2B3 JUMPI PUSH2 0x25B PUSH1 0x64 PUSH2 0x253 PUSH32 0x0 DUP6 PUSH2 0xB46 JUMP JUMPDEST DIV DUP1 SWAP4 PUSH2 0xB6F JUMP JUMPDEST SWAP2 PUSH2 0x267 DUP4 DUP4 CALLER PUSH2 0xB7C JUMP JUMPDEST PUSH2 0x271 DUP2 CALLER PUSH2 0xCA8 JUMP JUMPDEST DUP4 MLOAD SWAP3 DUP4 MSTORE DUP5 DUP4 ADD MSTORE PUSH1 0x1 PUSH1 0x1 PUSH1 0xA0 SHL SUB AND SWAP1 CALLER SWAP1 PUSH32 0x6D2113F8BD5342F6E43E5BE71FFA1B2F8D07C3C24185FC9D1C3B77785265E5B5 SWAP1 DUP5 SWAP1 LOG3 JUMPDEST MLOAD PUSH1 0x1 DUP2 MSTORE RETURN JUMPDEST SWAP1 PUSH2 0x2BE SWAP2 CALLER PUSH2 0xB7C JUMP JUMPDEST PUSH2 0x2AC JUMP JUMPDEST POP PUSH2 0x2CD CALLER PUSH2 0xC5A JUMP JUMPDEST ISZERO PUSH2 0x21F JUMP JUMPDEST DUP4 DUP4 CALLVALUE PUSH2 0x145 JUMPI DUP2 PUSH1 0x3 NOT CALLDATASIZE ADD SLT PUSH2 0x145 JUMPI DUP1 MLOAD SWAP1 DUP3 DUP5 SLOAD PUSH1 0x1 DUP2 DUP2 SHR SWAP1 DUP1 DUP4 AND SWAP3 DUP4 ISZERO PUSH2 0x3E8 JUMPI JUMPDEST PUSH1 0x20 SWAP4 DUP5 DUP5 LT DUP2 EQ PUSH2 0x3D5 JUMPI DUP4 DUP9 MSTORE SWAP1 DUP2 ISZERO PUSH2 0x3B9 JUMPI POP PUSH1 0x1 EQ PUSH2 0x364 JUMPI JUMPDEST POP POP POP DUP3 SWAP1 SUB PUSH1 0x1F ADD PUSH1 0x1F NOT AND DUP3 ADD SWAP3 PUSH8 0xFFFFFFFFFFFFFFFF DUP5 GT DUP4 DUP6 LT OR PUSH2 0x351 JUMPI POP DUP3 SWAP2 DUP3 PUSH2 0x34D SWAP3 MSTORE DUP3 PUSH2 0xA7B JUMP JUMPDEST SUB SWAP1 RETURN JUMPDEST PUSH4 0x4E487B71 PUSH1 0xE0 SHL DUP2 MSTORE PUSH1 0x41 DUP6 MSTORE PUSH1 0x24 SWAP1 REVERT JUMPDEST DUP8 DUP8 MSTORE SWAP2 SWAP3 POP DUP6 SWAP2 DUP4 PUSH32 0x8A35ACFBC15FF81A39AE7D344FD709F28E8600B4AA8C65C6B64BFE7FE36BD19B JUMPDEST DUP4 DUP6 LT PUSH2 0x3A5 JUMPI POP POP POP POP DUP4 ADD ADD DUP6 DUP1 DUP1 PUSH2 0x31B JUMP JUMPDEST DUP1 SLOAD DUP9 DUP7 ADD DUP4 ADD MSTORE SWAP4 ADD SWAP3 DUP5 SWAP1 DUP3 ADD PUSH2 0x38F JUMP JUMPDEST PUSH1 0xFF NOT AND DUP8 DUP6 ADD MSTORE POP POP ISZERO ISZERO PUSH1 0x5 SHL DUP5 ADD ADD SWAP1 POP DUP6 DUP1 DUP1 PUSH2 0x31B JUMP JUMPDEST PUSH4 0x4E487B71 PUSH1 0xE0 SHL DUP10 MSTORE PUSH1 0x22 DUP11 MSTORE PUSH1 0x24 DUP10 REVERT JUMPDEST SWAP2 PUSH1 0x7F AND SWAP2 PUSH2 0x2FC JUMP JUMPDEST POP POP CALLVALUE PUSH2 0x145 JUMPI DUP2 PUSH1 0x3 NOT CALLDATASIZE ADD SLT PUSH2 0x145 JUMPI PUSH1 0x20 SWAP1 MLOAD PUSH32 0x0 DUP2 MSTORE RETURN JUMPDEST POP POP CALLVALUE PUSH2 0x145 JUMPI DUP2 PUSH1 0x3 NOT CALLDATASIZE ADD SLT PUSH2 0x145 JUMPI PUSH1 0x20 SWAP1 MLOAD PUSH32 0x0 ISZERO ISZERO DUP2 MSTORE RETURN JUMPDEST POP POP CALLVALUE PUSH2 0x145 JUMPI PUSH1 0x20 CALLDATASIZE PUSH1 0x3 NOT ADD SLT PUSH2 0x145 JUMPI PUSH1 0x20 SWAP2 DUP2 SWAP1 PUSH1 0x1 PUSH1 0x1 PUSH1 0xA0 SHL SUB PUSH2 0x492 PUSH2 0xAC4 JUMP JUMPDEST AND DUP2 MSTORE DUP1 DUP5 MSTORE KECCAK256 SLOAD SWAP1 MLOAD SWAP1 DUP2 MSTORE RETURN JUMPDEST POP POP CALLVALUE PUSH2 0x145 JUMPI DUP2 PUSH1 0x3 NOT CALLDATASIZE ADD SLT PUSH2 0x145 JUMPI PUSH1 0x20 SWAP1 MLOAD PUSH1 0xA DUP2 MSTORE RETURN JUMPDEST DUP3 DUP5 CALLVALUE PUSH2 0x573 JUMPI PUSH1 0x20 CALLDATASIZE PUSH1 0x3 NOT ADD SLT PUSH2 0x573 JUMPI POP DUP2 CALLDATALOAD SWAP2 PUSH1 0x6 SLOAD DUP4 LT ISZERO PUSH2 0x541 JUMPI POP PUSH2 0x34D PUSH2 0x4EB DUP4 PUSH2 0xAF5 JUMP JUMPDEST POP SLOAD PUSH1 0x1 PUSH1 0x1 PUSH1 0xA0 SHL SUB AND SWAP2 PUSH1 0xFF PUSH1 0x2 PUSH2 0x512 PUSH1 0x1 PUSH2 0x509 DUP9 PUSH2 0xAF5 JUMP JUMPDEST POP ADD SLOAD SWAP7 PUSH2 0xAF5 JUMP JUMPDEST POP ADD SLOAD SWAP2 MLOAD PUSH1 0x1 PUSH1 0x1 PUSH1 0xA0 SHL SUB SWAP1 SWAP5 AND DUP5 MSTORE PUSH1 0x20 DUP5 ADD SWAP5 SWAP1 SWAP5 MSTORE SWAP3 SWAP1 SWAP3 AND ISZERO ISZERO PUSH1 0x40 DUP3 ADD MSTORE SWAP1 DUP2 SWAP1 PUSH1 0x60 DUP3 ADD SWAP1 JUMP JUMPDEST PUSH1 0x20 PUSH1 0x64 SWAP3 MLOAD SWAP2 PUSH3 0x461BCD PUSH1 0xE5 SHL DUP4 MSTORE DUP3 ADD MSTORE PUSH1 0xD PUSH1 0x24 DUP3 ADD MSTORE PUSH13 0x92DCECC2D8D2C840D2DCC8CAF PUSH1 0x9B SHL PUSH1 0x44 DUP3 ADD MSTORE REVERT JUMPDEST DUP1 REVERT JUMPDEST POP POP CALLVALUE PUSH2 0x145 JUMPI DUP2 PUSH1 0x3 NOT CALLDATASIZE ADD SLT PUSH2 0x145 JUMPI PUSH1 0x20 SWAP1 MLOAD PUSH32 0x0 ISZERO ISZERO DUP2 MSTORE RETURN JUMPDEST POP POP CALLVALUE PUSH2 0x145 JUMPI DUP2 PUSH1 0x3 NOT CALLDATASIZE ADD SLT PUSH2 0x145 JUMPI PUSH1 0x20 SWAP1 PUSH1 0x6 SLOAD SWAP1 MLOAD SWAP1 DUP2 MSTORE RETURN JUMPDEST POP POP CALLVALUE PUSH2 0x145 JUMPI DUP2 PUSH1 0x3 NOT CALLDATASIZE ADD SLT PUSH2 0x145 JUMPI PUSH1 0x20 SWAP1 MLOAD PUSH1 0x12 DUP2 MSTORE RETURN JUMPDEST DUP4 SWAP2 POP CALLVALUE PUSH2 0x145 JUMPI PUSH1 0x20 CALLDATASIZE PUSH1 0x3 NOT ADD SLT PUSH2 0x145 JUMPI CALLDATALOAD SWAP1 PUSH1 0x6 SLOAD DUP3 LT ISZERO PUSH2 0x573 JUMPI POP PUSH2 0x618 SWAP1 PUSH2 0xAF5 JUMP JUMPDEST POP DUP1 SLOAD PUSH1 0x1 DUP3 ADD SLOAD PUSH1 0x2 SWAP1 SWAP3 ADD SLOAD SWAP3 MLOAD PUSH1 0x1 PUSH1 0x1 PUSH1 0xA0 SHL SUB SWAP1 SWAP2 AND DUP2 MSTORE PUSH1 0x20 DUP2 ADD SWAP2 SWAP1 SWAP2 MSTORE PUSH1 0xFF SWAP1 SWAP2 AND ISZERO ISZERO PUSH1 0x40 DUP3 ADD MSTORE PUSH1 0x60 SWAP1 RETURN JUMPDEST DUP3 DUP5 CALLVALUE PUSH2 0x573 JUMPI PUSH1 0x60 CALLDATASIZE PUSH1 0x3 NOT ADD SLT PUSH2 0x573 JUMPI PUSH2 0x669 PUSH2 0xAC4 JUMP JUMPDEST PUSH2 0x671 PUSH2 0xADF JUMP JUMPDEST SWAP2 DUP4 PUSH1 0x44 CALLDATALOAD SWAP4 PUSH2 0x682 DUP6 DUP3 DUP7 PUSH2 0xD48 JUMP JUMPDEST PUSH1 0x1 DUP1 PUSH1 0xA0 SHL SUB SWAP1 DUP2 DUP6 AND SWAP4 DUP5 DUP2 MSTORE PUSH1 0x20 SWAP9 PUSH1 0x1 DUP11 MSTORE DUP5 DUP3 KECCAK256 CALLER DUP4 MSTORE DUP11 MSTORE DUP5 DUP3 KECCAK256 SLOAD SWAP1 PUSH1 0x0 NOT DUP3 LT PUSH2 0x780 JUMPI JUMPDEST POP POP POP PUSH32 0x0 DUP1 PUSH2 0x770 JUMPI JUMPDEST ISZERO PUSH2 0x762 JUMPI PUSH2 0x73E PUSH2 0x74F PUSH32 0x6D2113F8BD5342F6E43E5BE71FFA1B2F8D07C3C24185FC9D1C3B77785265E5B5 SWAP6 SWAP7 SWAP8 PUSH1 0x64 PUSH2 0x734 PUSH32 0x0 DUP4 PUSH2 0xB46 JUMP JUMPDEST DIV SWAP3 DUP4 DUP1 SWAP3 PUSH2 0xB6F JUMP JUMPDEST SWAP9 PUSH2 0x74A DUP11 DUP7 DUP4 PUSH2 0xB7C JUMP JUMPDEST PUSH2 0xCA8 JUMP JUMPDEST DUP4 MLOAD SWAP7 DUP8 MSTORE DUP9 DUP8 ADD MSTORE AND SWAP4 LOG3 MLOAD PUSH1 0x1 DUP2 MSTORE RETURN JUMPDEST SWAP3 POP POP POP PUSH2 0x2BE SWAP3 SWAP2 PUSH2 0xB7C JUMP JUMPDEST POP PUSH2 0x77A DUP6 PUSH2 0xC5A JUMP JUMPDEST ISZERO PUSH2 0x6D9 JUMP JUMPDEST SWAP1 SWAP2 SWAP3 SWAP4 SWAP5 POP DUP8 DUP3 LT PUSH2 0x7EA JUMPI DUP6 ISZERO PUSH2 0x7D3 JUMPI CALLER ISZERO PUSH2 0x7BC JUMPI POP SWAP1 DUP8 DUP8 DUP2 SWAP6 SWAP5 SWAP4 DUP8 DUP5 MSTORE PUSH1 0x1 DUP13 MSTORE DUP3 DUP5 KECCAK256 CALLER DUP6 MSTORE DUP13 MSTORE SUB SWAP2 KECCAK256 SSTORE DUP9 DUP1 DUP1 PUSH2 0x6AF JUMP JUMPDEST DUP9 MLOAD PUSH4 0x4A1406B1 PUSH1 0xE1 SHL DUP2 MSTORE SWAP1 DUP2 ADD DUP4 SWAP1 MSTORE PUSH1 0x24 SWAP1 REVERT JUMPDEST DUP9 MLOAD PUSH4 0xE602DF05 PUSH1 0xE0 SHL DUP2 MSTORE SWAP1 DUP2 ADD DUP4 SWAP1 MSTORE PUSH1 0x24 SWAP1 REVERT JUMPDEST DUP9 MLOAD PUSH4 0x7DC7A0D9 PUSH1 0xE1 SHL DUP2 MSTORE CALLER SWAP2 DUP2 ADD SWAP2 DUP3 MSTORE PUSH1 0x20 DUP3 ADD SWAP3 SWAP1 SWAP3 MSTORE PUSH1 0x40 DUP2 ADD DUP9 SWAP1 MSTORE DUP2 SWAP1 PUSH1 0x60 ADD SUB SWAP1 REVERT JUMPDEST POP POP CALLVALUE PUSH2 0x145 JUMPI DUP2 PUSH1 0x3 NOT CALLDATASIZE ADD SLT PUSH2 0x145 JUMPI PUSH1 0x20 SWAP1 PUSH1 0x2 SLOAD SWAP1 MLOAD SWAP1 DUP2 MSTORE RETURN JUMPDEST POP POP CALLVALUE PUSH2 0x145 JUMPI PUSH1 0x20 CALLDATASIZE PUSH1 0x3 NOT ADD SLT PUSH2 0x145 JUMPI PUSH1 0x20 SWAP2 PUSH1 0xFF SWAP1 DUP3 SWAP1 PUSH1 0x1 PUSH1 0x1 PUSH1 0xA0 SHL SUB PUSH2 0x85F PUSH2 0xAC4 JUMP JUMPDEST AND DUP2 MSTORE PUSH1 0x7 DUP6 MSTORE KECCAK256 SLOAD AND SWAP1 MLOAD SWAP1 ISZERO ISZERO DUP2 MSTORE RETURN JUMPDEST POP POP CALLVALUE PUSH2 0x145 JUMPI PUSH1 0x20 CALLDATASIZE PUSH1 0x3 NOT ADD SLT PUSH2 0x145 JUMPI PUSH1 0x20 SWAP2 PUSH1 0xFF SWAP1 DUP3 SWAP1 PUSH1 0x1 PUSH1 0x1 PUSH1 0xA0 SHL SUB PUSH2 0x89D PUSH2 0xAC4 JUMP JUMPDEST AND DUP2 MSTORE PUSH1 0x8 DUP6 MSTORE KECCAK256 SLOAD AND SWAP1 MLOAD SWAP1 ISZERO ISZERO DUP2 MSTORE RETURN JUMPDEST SWAP1 POP CALLVALUE PUSH2 0x95A JUMPI DUP2 PUSH1 0x3 NOT CALLDATASIZE ADD SLT PUSH2 0x95A JUMPI PUSH2 0x8CA PUSH2 0xAC4 JUMP JUMPDEST PUSH1 0x24 CALLDATALOAD SWAP1 CALLER ISZERO PUSH2 0x943 JUMPI PUSH1 0x1 PUSH1 0x1 PUSH1 0xA0 SHL SUB AND SWAP2 DUP3 ISZERO PUSH2 0x92C JUMPI POP DUP1 DUP4 PUSH1 0x20 SWAP6 CALLER DUP2 MSTORE PUSH1 0x1 DUP8 MSTORE DUP2 DUP2 KECCAK256 DUP6 DUP3 MSTORE DUP8 MSTORE KECCAK256 SSTORE DUP3 MLOAD SWAP1 DUP2 MSTORE PUSH32 0x8C5BE1E5EBEC7D5BD14F71427D1E84F3DD0314C0F7B2291E5B200AC8C7C3B925 DUP5 CALLER SWAP3 LOG3 MLOAD PUSH1 0x1 DUP2 MSTORE RETURN JUMPDEST DUP4 MLOAD PUSH4 0x4A1406B1 PUSH1 0xE1 SHL DUP2 MSTORE SWAP1 DUP2 ADD DUP6 SWAP1 MSTORE PUSH1 0x24 SWAP1 REVERT JUMPDEST DUP4 MLOAD PUSH4 0xE602DF05 PUSH1 0xE0 SHL DUP2 MSTORE DUP1 DUP5 ADD DUP7 SWAP1 MSTORE PUSH1 0x24 SWAP1 REVERT JUMPDEST DUP3 DUP1 REVERT JUMPDEST DUP4 DUP4 CALLVALUE PUSH2 0x145 JUMPI DUP2 PUSH1 0x3 NOT CALLDATASIZE ADD SLT PUSH2 0x145 JUMPI DUP1 MLOAD SWAP1 DUP3 PUSH1 0x3 SLOAD PUSH1 0x1 DUP2 DUP2 SHR SWAP1 DUP1 DUP4 AND SWAP3 DUP4 ISZERO PUSH2 0xA2E JUMPI JUMPDEST PUSH1 0x20 SWAP4 DUP5 DUP5 LT DUP2 EQ PUSH2 0x3D5 JUMPI DUP4 DUP9 MSTORE SWAP1 DUP2 ISZERO PUSH2 0x3B9 JUMPI POP PUSH1 0x1 EQ PUSH2 0x9D8 JUMPI POP POP POP DUP3 SWAP1 SUB PUSH1 0x1F ADD PUSH1 0x1F NOT AND DUP3 ADD SWAP3 PUSH8 0xFFFFFFFFFFFFFFFF DUP5 GT DUP4 DUP6 LT OR PUSH2 0x351 JUMPI POP DUP3 SWAP2 DUP3 PUSH2 0x34D SWAP3 MSTORE DUP3 PUSH2 0xA7B JUMP JUMPDEST PUSH1 0x3 DUP8 MSTORE SWAP2 SWAP3 POP DUP6 SWAP2 DUP4 PUSH32 0xC2575A0E9E593C00F959F8C92F12DB2869C3395A3B0502D05E2516446F71F85B JUMPDEST DUP4 DUP6 LT PUSH2 0xA1A JUMPI POP POP POP POP DUP4 ADD ADD DUP6 DUP1 DUP1 PUSH2 0x31B JUMP JUMPDEST DUP1 SLOAD DUP9 DUP7 ADD DUP4 ADD MSTORE SWAP4 ADD SWAP3 DUP5 SWAP1 DUP3 ADD PUSH2 0xA04 JUMP JUMPDEST SWAP2 PUSH1 0x7F AND SWAP2 PUSH2 0x988 JUMP JUMPDEST DUP5 SWAP1 CALLVALUE PUSH2 0x145 JUMPI DUP2 PUSH1 0x3 NOT CALLDATASIZE ADD SLT PUSH2 0x145 JUMPI PUSH32 0x0 PUSH1 0x1 PUSH1 0x1 PUSH1 0xA0 SHL SUB AND DUP2 MSTORE PUSH1 0x20 SWAP1 RETURN JUMPDEST PUSH1 0x20 DUP1 DUP3 MSTORE DUP3 MLOAD DUP2 DUP4 ADD DUP2 SWAP1 MSTORE SWAP1 SWAP4 SWAP3 PUSH1 0x0 JUMPDEST DUP3 DUP2 LT PUSH2 0xAB0 JUMPI POP POP PUSH1 0x40 SWAP3 SWAP4 POP PUSH1 0x0 DUP4 DUP3 DUP5 ADD ADD MSTORE PUSH1 0x1F DUP1 NOT SWAP2 ADD AND ADD ADD SWAP1 JUMP JUMPDEST DUP2 DUP2 ADD DUP7 ADD MLOAD DUP5 DUP3 ADD PUSH1 0x40 ADD MSTORE DUP6 ADD PUSH2 0xA8E JUMP JUMPDEST PUSH1 0x4 CALLDATALOAD SWAP1 PUSH1 0x1 PUSH1 0x1 PUSH1 0xA0 SHL SUB DUP3 AND DUP3 SUB PUSH2 0xADA JUMPI JUMP JUMPDEST PUSH1 0x0 DUP1 REVERT JUMPDEST PUSH1 0x24 CALLDATALOAD SWAP1 PUSH1 0x1 PUSH1 0x1 PUSH1 0xA0 SHL SUB DUP3 AND DUP3 SUB PUSH2 0xADA JUMPI JUMP JUMPDEST PUSH1 0x6 SLOAD DUP2 LT ISZERO PUSH2 0xB30 JUMPI PUSH1 0x3 SWAP1 PUSH1 0x6 PUSH1 0x0 MSTORE MUL PUSH32 0xF652222313E28459528D920B65115C16C04F3EFC82AAEDC97BE59F3F377C0D3F ADD SWAP1 PUSH1 0x0 SWAP1 JUMP JUMPDEST PUSH4 0x4E487B71 PUSH1 0xE0 SHL PUSH1 0x0 MSTORE PUSH1 0x32 PUSH1 0x4 MSTORE PUSH1 0x24 PUSH1 0x0 REVERT JUMPDEST DUP2 DUP2 MUL SWAP3 SWAP2 DUP2 ISZERO SWAP2 DUP5 DIV EQ OR ISZERO PUSH2 0xB59 JUMPI JUMP JUMPDEST PUSH4 0x4E487B71 PUSH1 0xE0 SHL PUSH1 0x0 MSTORE PUSH1 0x11 PUSH1 0x4 MSTORE PUSH1 0x24 PUSH1 0x0 REVERT JUMPDEST SWAP2 SWAP1 DUP3 SUB SWAP2 DUP3 GT PUSH2 0xB59 JUMPI JUMP JUMPDEST SWAP2 PUSH1 0x1 PUSH1 0x1 PUSH1 0xA0 SHL SUB DUP1 DUP5 AND SWAP3 DUP4 ISZERO PUSH2 0xC41 JUMPI AND SWAP3 DUP4 ISZERO PUSH2 0xC28 JUMPI PUSH1 0x0 SWAP1 DUP4 DUP3 MSTORE DUP2 PUSH1 0x20 MSTORE PUSH1 0x40 DUP3 KECCAK256 SLOAD SWAP1 DUP4 DUP3 LT PUSH2 0xBF6 JUMPI POP SWAP2 PUSH1 0x40 DUP3 DUP3 PUSH32 0xDDF252AD1BE2C89B69C2B068FC378DAA952BA7F163C4A11628F55A4DF523B3EF SWAP6 DUP8 PUSH1 0x20 SWAP7 MSTORE DUP3 DUP7 MSTORE SUB DUP3 DUP3 KECCAK256 SSTORE DUP7 DUP2 MSTORE KECCAK256 DUP2 DUP2 SLOAD ADD SWAP1 SSTORE PUSH1 0x40 MLOAD SWAP1 DUP2 MSTORE LOG3 JUMP JUMPDEST PUSH1 0x40 MLOAD PUSH4 0x391434E3 PUSH1 0xE2 SHL DUP2 MSTORE PUSH1 0x1 PUSH1 0x1 PUSH1 0xA0 SHL SUB SWAP2 SWAP1 SWAP2 AND PUSH1 0x4 DUP3 ADD MSTORE PUSH1 0x24 DUP2 ADD SWAP2 SWAP1 SWAP2 MSTORE PUSH1 0x44 DUP2 ADD DUP4 SWAP1 MSTORE PUSH1 0x64 SWAP1 REVERT JUMPDEST PUSH1 0x40 MLOAD PUSH4 0xEC442F05 PUSH1 0xE0 SHL DUP2 MSTORE PUSH1 0x0 PUSH1 0x4 DUP3 ADD MSTORE PUSH1 0x24 SWAP1 REVERT JUMPDEST PUSH1 0x40 MLOAD PUSH4 0x4B637E8F PUSH1 0xE1 SHL DUP2 MSTORE PUSH1 0x0 PUSH1 0x4 DUP3 ADD MSTORE PUSH1 0x24 SWAP1 REVERT JUMPDEST PUSH1 0x1 PUSH1 0x1 PUSH1 0xA0 SHL SUB SWAP1 DUP2 AND SWAP1 PUSH32 0x0 AND DUP2 EQ PUSH2 0xCA2 JUMPI PUSH1 0x0 MSTORE PUSH1 0x7 PUSH1 0x20 MSTORE PUSH1 0xFF PUSH1 0x40 PUSH1 0x0 KECCAK256 SLOAD AND SWAP1 JUMP JUMPDEST POP PUSH1 0x1 SWAP1 JUMP JUMPDEST PUSH1 0x0 SWAP1 PUSH32 0x0 SWAP3 DUP4 ISZERO SWAP3 JUMPDEST PUSH1 0x6 SLOAD DUP2 LT ISZERO PUSH2 0xD41 JUMPI DUP4 PUSH2 0xCF3 PUSH1 0x1 PUSH2 0xCEA DUP5 PUSH2 0xAF5 JUMP JUMPDEST POP ADD SLOAD DUP5 PUSH2 0xB46 JUMP JUMPDEST SWAP1 PUSH2 0xD2B JUMPI PUSH2 0xD1A SWAP1 DUP7 PUSH2 0xD06 DUP5 PUSH2 0xAF5 JUMP JUMPDEST POP SLOAD SWAP2 DIV SWAP1 PUSH1 0x1 PUSH1 0x1 PUSH1 0xA0 SHL SUB AND DUP6 PUSH2 0xB7C JUMP JUMPDEST PUSH1 0x0 NOT DUP2 EQ PUSH2 0xB59 JUMPI PUSH1 0x1 ADD PUSH2 0xCD1 JUMP JUMPDEST PUSH4 0x4E487B71 PUSH1 0xE0 SHL PUSH1 0x0 MSTORE PUSH1 0x12 PUSH1 0x4 MSTORE PUSH1 0x24 PUSH1 0x0 REVERT JUMPDEST POP POP POP POP POP JUMP JUMPDEST SWAP1 PUSH32 0x0 PUSH2 0xE53 JUMPI JUMPDEST PUSH32 0x0 SWAP2 DUP3 PUSH2 0xE2F JUMPI JUMPDEST POP DUP2 PUSH2 0xE0B JUMPI JUMPDEST POP PUSH2 0xDA6 JUMPI POP JUMP JUMPDEST PUSH32 0x0 LT PUSH2 0xDCE JUMPI JUMP JUMPDEST PUSH1 0x40 MLOAD PUSH3 0x461BCD PUSH1 0xE5 SHL DUP2 MSTORE PUSH1 0x20 PUSH1 0x4 DUP3 ADD MSTORE PUSH1 0x15 PUSH1 0x24 DUP3 ADD MSTORE PUSH21 0x115E18D959591CC81B585E081D1E08185B5BDD5B9D PUSH1 0x5A SHL PUSH1 0x44 DUP3 ADD MSTORE PUSH1 0x64 SWAP1 REVERT JUMPDEST PUSH1 0x1 PUSH1 0x1 PUSH1 0xA0 SHL SUB AND PUSH1 0x0 SWAP1 DUP2 MSTORE PUSH1 0x8 PUSH1 0x20 MSTORE PUSH1 0x40 SWAP1 KECCAK256 SLOAD PUSH1 0xFF AND ISZERO SWAP1 POP CODESIZE PUSH2 0xD9E JUMP JUMPDEST PUSH1 0x1 PUSH1 0x1 PUSH1 0xA0 SHL SUB AND PUSH1 0x0 SWAP1 DUP2 MSTORE PUSH1 0x8 PUSH1 0x20 MSTORE PUSH1 0x40 SWAP1 KECCAK256 SLOAD PUSH1 0xFF AND ISZERO SWAP2 POP CODESIZE PUSH2 0xD97 JUMP JUMPDEST PUSH1 0x1 PUSH1 0x1 PUSH1 0xA0 SHL SUB DUP3 DUP2 AND ISZERO ISZERO SWAP1 DUP2 PUSH2 0xEA3 JUMPI JUMPDEST POP PUSH2 0xD6F JUMPI PUSH1 0x40 MLOAD PUSH3 0x461BCD PUSH1 0xE5 SHL DUP2 MSTORE PUSH1 0x20 PUSH1 0x4 DUP3 ADD MSTORE PUSH1 0xF PUSH1 0x24 DUP3 ADD MSTORE PUSH15 0x496E76616C69642061646472657373 PUSH1 0x88 SHL PUSH1 0x44 DUP3 ADD MSTORE PUSH1 0x64 SWAP1 REVERT JUMPDEST SWAP1 POP DUP2 AND ISZERO ISZERO CODESIZE PUSH2 0xE67 JUMP INVALID LOG2 PUSH5 0x6970667358 0x22 SLT KECCAK256 0xD9 0xF8 LOG3 SMOD 0x1F 0xD1 DUP3 EXTCODECOPY 0xE1 DUP6 0xE6 0xAD 0xDB 0xEE 0xD2 SWAP13 MULMOD 0xA7 COINBASE SWAP9 0xE2 DUP12 NOT CALLCODE SAR XOR PUSH31 0x6B95B07D6064736F6C63430008140033000000000000000000000000000000 "},"methodIdentifiers":{"MAX_TAX_RECIPIENTS()":"67b675a5","allowance(address,address)":"dd62ed3e","antiBotEnabled()":"d8c6404b","antiWhaleEnabled()":"57d87f0d","approve(address,uint256)":"095ea7b3","balanceOf(address)":"70a08231","creator()":"02d05d3f","decimals()":"313ce567","getTaxRecipient(uint256)":"67b0c79f","getTaxRecipientsCount()":"3da0730a","isTaxExempt(address)":"16c2be6b","isWhaleExempt(address)":"125cac3e","maxTxAmount()":"8c0b5e22","name()":"06fdde03","symbol()":"95d89b41","taxEnabled()":"870bd30b","taxRecipients(uint256)":"301b18de","totalSupply()":"18160ddd","totalTaxPercentage()":"fff5a9fb","transfer(address,uint256)":"a9059cbb","transferFrom(address,address,uint256)":"23b872dd"}}}}}