{
  "_format": "hh-sol-artifact-1",
  "contractName": "Token",
  "sourceName": "contracts/Token.sol",
  "abi": [
    {
      "inputs": [
        {
          "internalType": "address",
          "name": "creator_",
          "type": "address"
        },
        {
          "internalType": "string",
          "name": "name_",
          "type": "string"
        },
        {
          "internalType": "string",
          "name": "symbol_",
          "type": "string"
        },
        {
          "internalType": "uint256",
          "name": "initialSupply_",
          "type": "uint256"
        },
        {
          "internalType": "bool",
          "name": "antiBot_",
          "type": "bool"
        },
        {
          "internalType": "bool",
          "name": "antiWhale_",
          "type": "bool"
        },
        {
          "internalType": "uint256",
          "name": "maxTxAmount_",
          "type": "uint256"
        },
        {
          "internalType": "bool",
          "name": "taxEnabled_",
          "type": "bool"
        },
        {
          "internalType": "address[]",
          "name": "taxRecipients_",
          "type": "address[]"
        },
        {
          "internalType": "uint256[]",
          "name": "taxPercentages_",
          "type": "uint256[]"
        }
      ],
      "stateMutability": "nonpayable",
      "type": "constructor"
    },
    {
      "inputs": [
        {
          "internalType": "address",
          "name": "spender",
          "type": "address"
        },
        {
          "internalType": "uint256",
          "name": "allowance",
          "type": "uint256"
        },
        {
          "internalType": "uint256",
          "name": "needed",
          "type": "uint256"
        }
      ],
      "name": "ERC20InsufficientAllowance",
      "type": "error"
    },
    {
      "inputs": [
        {
          "internalType": "address",
          "name": "sender",
          "type": "address"
        },
        {
          "internalType": "uint256",
          "name": "balance",
          "type": "uint256"
        },
        {
          "internalType": "uint256",
          "name": "needed",
          "type": "uint256"
        }
      ],
      "name": "ERC20InsufficientBalance",
      "type": "error"
    },
    {
      "inputs": [
        {
          "internalType": "address",
          "name": "approver",
          "type": "address"
        }
      ],
      "name": "ERC20InvalidApprover",
      "type": "error"
    },
    {
      "inputs": [
        {
          "internalType": "address",
          "name": "receiver",
          "type": "address"
        }
      ],
      "name": "ERC20InvalidReceiver",
      "type": "error"
    },
    {
      "inputs": [
        {
          "internalType": "address",
          "name": "sender",
          "type": "address"
        }
      ],
      "name": "ERC20InvalidSender",
      "type": "error"
    },
    {
      "inputs": [
        {
          "internalType": "address",
          "name": "spender",
          "type": "address"
        }
      ],
      "name": "ERC20InvalidSpender",
      "type": "error"
    },
    {
      "inputs": [],
      "name": "ReentrancyGuardReentrantCall",
      "type": "error"
    },
    {
      "anonymous": false,
      "inputs": [
        {
          "indexed": true,
          "internalType": "address",
          "name": "owner",
          "type": "address"
        },
        {
          "indexed": true,
          "internalType": "address",
          "name": "spender",
          "type": "address"
        },
        {
          "indexed": false,
          "internalType": "uint256",
          "name": "value",
          "type": "uint256"
        }
      ],
      "name": "Approval",
      "type": "event"
    },
    {
      "anonymous": false,
      "inputs": [
        {
          "indexed": true,
          "internalType": "address",
          "name": "from",
          "type": "address"
        },
        {
          "indexed": true,
          "internalType": "address",
          "name": "to",
          "type": "address"
        },
        {
          "indexed": false,
          "internalType": "uint256",
          "name": "value",
          "type": "uint256"
        }
      ],
      "name": "Transfer",
      "type": "event"
    },
    {
      "anonymous": false,
      "inputs": [
        {
          "indexed": true,
          "internalType": "address",
          "name": "from",
          "type": "address"
        },
        {
          "indexed": true,
          "internalType": "address",
          "name": "to",
          "type": "address"
        },
        {
          "indexed": false,
          "internalType": "uint256",
          "name": "amount",
          "type": "uint256"
        },
        {
          "indexed": false,
          "internalType": "uint256",
          "name": "taxAmount",
          "type": "uint256"
        }
      ],
      "name": "TransferWithTax",
      "type": "event"
    },
    {
      "inputs": [],
      "name": "MAX_TAX_RECIPIENTS",
      "outputs": [
        {
          "internalType": "uint256",
          "name": "",
          "type": "uint256"
        }
      ],
      "stateMutability": "view",
      "type": "function"
    },
    {
      "inputs": [
        {
          "internalType": "address",
          "name": "owner",
          "type": "address"
        },
        {
          "internalType": "address",
          "name": "spender",
          "type": "address"
        }
      ],
      "name": "allowance",
      "outputs": [
        {
          "internalType": "uint256",
          "name": "",
          "type": "uint256"
        }
      ],
      "stateMutability": "view",
      "type": "function"
    },
    {
      "inputs": [],
      "name": "antiBotEnabled",
      "outputs": [
        {
          "internalType": "bool",
          "name": "",
          "type": "bool"
        }
      ],
      "stateMutability": "view",
      "type": "function"
    },
    {
      "inputs": [],
      "name": "antiWhaleEnabled",
      "outputs": [
        {
          "internalType": "bool",
          "name": "",
          "type": "bool"
        }
      ],
      "stateMutability": "view",
      "type": "function"
    },
    {
      "inputs": [
        {
          "internalType": "address",
          "name": "spender",
          "type": "address"
        },
        {
          "internalType": "uint256",
          "name": "value",
          "type": "uint256"
        }
      ],
      "name": "approve",
      "outputs": [
        {
          "internalType": "bool",
          "name": "",
          "type": "bool"
        }
      ],
      "stateMutability": "nonpayable",
      "type": "function"
    },
    {
      "inputs": [
        {
          "internalType": "address",
          "name": "account",
          "type": "address"
        }
      ],
      "name": "balanceOf",
      "outputs": [
        {
          "internalType": "uint256",
          "name": "",
          "type": "uint256"
        }
      ],
      "stateMutability": "view",
      "type": "function"
    },
    {
      "inputs": [],
      "name": "creator",
      "outputs": [
        {
          "internalType": "address",
          "name": "",
          "type": "address"
        }
      ],
      "stateMutability": "view",
      "type": "function"
    },
    {
      "inputs": [],
      "name": "decimals",
      "outputs": [
        {
          "internalType": "uint8",
          "name": "",
          "type": "uint8"
        }
      ],
      "stateMutability": "view",
      "type": "function"
    },
    {
      "inputs": [
        {
          "internalType": "uint256",
          "name": "index",
          "type": "uint256"
        }
      ],
      "name": "getTaxRecipient",
      "outputs": [
        {
          "internalType": "address",
          "name": "",
          "type": "address"
        },
        {
          "internalType": "uint256",
          "name": "",
          "type": "uint256"
        },
        {
          "internalType": "bool",
          "name": "",
          "type": "bool"
        }
      ],
      "stateMutability": "view",
      "type": "function"
    },
    {
      "inputs": [],
      "name": "getTaxRecipientsCount",
      "outputs": [
        {
          "internalType": "uint256",
          "name": "",
          "type": "uint256"
        }
      ],
      "stateMutability": "view",
      "type": "function"
    },
    {
      "inputs": [
        {
          "internalType": "address",
          "name": "",
          "type": "address"
        }
      ],
      "name": "isTaxExempt",
      "outputs": [
        {
          "internalType": "bool",
          "name": "",
          "type": "bool"
        }
      ],
      "stateMutability": "view",
      "type": "function"
    },
    {
      "inputs": [
        {
          "internalType": "address",
          "name": "",
          "type": "address"
        }
      ],
      "name": "isWhaleExempt",
      "outputs": [
        {
          "internalType": "bool",
          "name": "",
          "type": "bool"
        }
      ],
      "stateMutability": "view",
      "type": "function"
    },
    {
      "inputs": [],
      "name": "maxTxAmount",
      "outputs": [
        {
          "internalType": "uint256",
          "name": "",
          "type": "uint256"
        }
      ],
      "stateMutability": "view",
      "type": "function"
    },
    {
      "inputs": [],
      "name": "name",
      "outputs": [
        {
          "internalType": "string",
          "name": "",
          "type": "string"
        }
      ],
      "stateMutability": "view",
      "type": "function"
    },
    {
      "inputs": [],
      "name": "symbol",
      "outputs": [
        {
          "internalType": "string",
          "name": "",
          "type": "string"
        }
      ],
      "stateMutability": "view",
      "type": "function"
    },
    {
      "inputs": [],
      "name": "taxEnabled",
      "outputs": [
        {
          "internalType": "bool",
          "name": "",
          "type": "bool"
        }
      ],
      "stateMutability": "view",
      "type": "function"
    },
    {
      "inputs": [
        {
          "internalType": "uint256",
          "name": "",
          "type": "uint256"
        }
      ],
      "name": "taxRecipients",
      "outputs": [
        {
          "internalType": "address",
          "name": "recipient",
          "type": "address"
        },
        {
          "internalType": "uint256",
          "name": "percentage",
          "type": "uint256"
        },
        {
          "internalType": "bool",
          "name": "isContract",
          "type": "bool"
        }
      ],
      "stateMutability": "view",
      "type": "function"
    },
    {
      "inputs": [],
      "name": "totalSupply",
      "outputs": [
        {
          "internalType": "uint256",
          "name": "",
          "type": "uint256"
        }
      ],
      "stateMutability": "view",
      "type": "function"
    },
    {
      "inputs": [],
      "name": "totalTaxPercentage",
      "outputs": [
        {
          "internalType": "uint256",
          "name": "",
          "type": "uint256"
        }
      ],
      "stateMutability": "view",
      "type": "function"
    },
    {
      "inputs": [
        {
          "internalType": "address",
          "name": "to",
          "type": "address"
        },
        {
          "internalType": "uint256",
          "name": "amount",
          "type": "uint256"
        }
      ],
      "name": "transfer",
      "outputs": [
        {
          "internalType": "bool",
          "name": "",
          "type": "bool"
        }
      ],
      "stateMutability": "nonpayable",
      "type": "function"
    },
    {
      "inputs": [
        {
          "internalType": "address",
          "name": "from",
          "type": "address"
        },
        {
          "internalType": "address",
          "name": "to",
          "type": "address"
        },
        {
          "internalType": "uint256",
          "name": "amount",
          "type": "uint256"
        }
      ],
      "name": "transferFrom",
      "outputs": [
        {
          "internalType": "bool",
          "name": "",
          "type": "bool"
        }
      ],
      "stateMutability": "nonpayable",
      "type": "function"
    }
  ],
  "bytecode": "0x6101406040523462000993576200199280380390816200001f81620009b6565b91823961014081838101031262000993576200003b81620009dc565b60208201519092906001600160401b03811162000993576200006390828401908401620009f1565b60408301519093906001600160401b03811162000993576200008b90838501908501620009f1565b90606084015190620000a06080860162000a63565b92620000af60a0870162000a63565b60c087015191620000c360e0890162000a63565b6101008901519099906001600160401b0381116200099357890197808a01601f8a0112156200099357885162000103620000fd8262000a71565b620009b6565b9960208b8381520190838d0160208460051b8301011162000993579060208201915b60208460051b82010183106200099857505050506101208a0151906001600160401b0382116200099357808b01601f838d010112156200099357818b01519162000173620000fd8462000a71565b9b60208d8581520192810160208560051b848401010111620009935780820160200192915b60208560051b828401010184106200097e5750508351939250506001600160401b0383119050620004785760035490600182811c9216801562000973575b6020831014620008495781601f84931162000901575b50602090601f831160011462000876576000926200086a575b50508160011b916000199060031b1c1916176003555b8051906001600160401b038211620004785760045490600182811c921680156200085f575b6020831014620008495781601f849311620007d7575b50602090601f831160011462000748576000926200073c575b50508160011b916000199060031b1c1916176004555b60016005558551875103620006f757600a865111620006b257600094836101205260018060a01b0384168652600760205260408620600160ff19825416179055600860205260408620600160ff1982541617905530865260408620600160ff19825416179055855b875187101562000522576001600160a01b036200030b888a62000a89565b511615620004dd576200031f878a62000a89565b51156200048e576200033f9062000337888b62000a89565b519062000a9e565b956001600160a01b0362000354828a62000a89565b511663ffffffff813b1615156200036c838c62000a89565b5160405191906001600160401b0360608401908111908411176200047857606083016040528383526020830152604082015260065468010000000000000000811015620004785760018101806006558110156200046257600260409160066000526003602060002091020160018060a01b0384511660018060a01b03198254161781556020840151600182015501910151151560ff8019835416911617905560005260076020526040600020600160ff1982541617905560086020526040600020600160ff1982541617905560001981146200044c5760010195620002ed565b634e487b7160e01b600052601160045260246000fd5b634e487b7160e01b600052603260045260246000fd5b634e487b7160e01b600052604160045260246000fd5b60405162461bcd60e51b815260206004820152602160248201527f50657263656e74616765206d7573742062652067726561746572207468616e206044820152600360fc1b6064820152608490fd5b60405162461bcd60e51b815260206004820152601960248201527f496e76616c696420726563697069656e742061646472657373000000000000006044820152606490fd5b899088606482116200066d578160e0528262000661575b508162000656575b506101005260805260a05260c0526001600160a01b038116156200063d577fddf252ad1be2c89b69c2b068fc378daa952ba7f163c4a11628f55a4df523b3ef6020600092620005938560025462000a9e565b6002556001600160a01b031680845283825260408085208054870190555194855293a3604051610ee5908162000aad82396080518181816101a80152610d4b015260a05181818161058e0152610d71015260c05181818161040a0152610da8015260e0518181816101220152818161022e0152818161070f0152610cad0152610100518181816101fa0152818161044501526106b4015261012051818181610a4c0152610c680152f35b60405163ec442f0560e01b815260006004820152602490fd5b905015158662000541565b51151591508762000539565b60405162461bcd60e51b815260206004820152601c60248201527f546f74616c207461782063616e6e6f74206578636565642031303025000000006044820152606490fd5b60405162461bcd60e51b815260206004820152601760248201527f546f6f206d616e792074617820726563697069656e74730000000000000000006044820152606490fd5b60405162461bcd60e51b815260206004820152601560248201527f4d69736d617463686564207461782061727261797300000000000000000000006044820152606490fd5b0151905038806200026f565b6004600090815293507f8a35acfbc15ff81a39ae7d344fd709f28e8600b4aa8c65c6b64bfe7fe36bd19b91905b601f1984168510620007bb576001945083601f19811610620007a1575b505050811b0160045562000285565b015160001960f88460031b161c1916905538808062000792565b8181015183556020948501946001909301929091019062000775565b60046000529091507f8a35acfbc15ff81a39ae7d344fd709f28e8600b4aa8c65c6b64bfe7fe36bd19b601f840160051c81016020851062000841575b90849392915b601f830160051c820181106200083157505062000256565b6000815585945060010162000819565b508062000813565b634e487b7160e01b600052602260045260246000fd5b91607f169162000240565b01519050388062000205565b600360009081527fc2575a0e9e593c00f959f8c92f12db2869c3395a3b0502d05e2516446f71f85b9350601f198516905b818110620008e85750908460019594939210620008ce575b505050811b016003556200021b565b015160001960f88460031b161c19169055388080620008bf565b92936020600181928786015181550195019301620008a7565b60036000529091507fc2575a0e9e593c00f959f8c92f12db2869c3395a3b0502d05e2516446f71f85b601f840160051c8101602085106200096b575b90849392915b601f830160051c820181106200095b575050620001ec565b6000815585945060010162000943565b50806200093d565b91607f1691620001d6565b60208080948651815201940193925062000198565b600080fd5b6020808093620009a886620009dc565b815201930192915062000125565b6040519190601f01601f191682016001600160401b038111838210176200047857604052565b51906001600160a01b03821682036200099357565b919080601f84011215620009935782516001600160401b038111620004785760209062000a27601f8201601f19168301620009b6565b92818452828287010111620009935760005b81811062000a4f57508260009394955001015290565b858101830151848201840152820162000a39565b519081151582036200099357565b6001600160401b038111620004785760051b60200190565b8051821015620004625760209160051b010190565b919082018092116200044c5756fe608060408181526004918236101561001657600080fd5b600092833560e01c91826302d05d3f14610a385750816306fdde031461095e578163095ea7b3146108b0578163125cac3e1461087257816316c2be6b1461083457816318160ddd1461081557816323b872dd1461064e578163301b18de146105ee578163313ce567146105d25781633da0730a146105b357816357d87f0d1461057657816367b0c79f146104bd57816367b675a5146104a157816370a082311461046a578163870bd30b1461042d5781638c0b5e22146103f257816395d89b41146102d357508063a9059cbb146101cd578063d8c6404b14610191578063dd62ed3e146101495763fff5a9fb1461010c57600080fd5b34610145578160031936011261014557602090517f00000000000000000000000000000000000000000000000000000000000000008152f35b5080fd5b503461014557806003193601126101455780602092610166610ac4565b61016e610adf565b6001600160a01b0391821683526001865283832091168252845220549051908152f35b5034610145578160031936011261014557602090517f000000000000000000000000000000000000000000000000000000000000000015158152f35b50346101455780600319360112610145576020906101e9610ac4565b602435906101f8828233610d48565b7f0000000000000000000000000000000000000000000000000000000000000000806102c3575b156102b35761025b60646102537f000000000000000000000000000000000000000000000000000000000000000085610b46565b048093610b6f565b91610267838333610b7c565b6102718133610ca8565b8351928352848301526001600160a01b03169033907f6d2113f8bd5342f6e43e5be71ffa1b2f8d07c3c24185fc9d1c3b77785265e5b5908490a35b5160018152f35b906102be9133610b7c565b6102ac565b506102cd33610c5a565b1561021f565b838334610145578160031936011261014557805190828454600181811c908083169283156103e8575b60209384841081146103d5578388529081156103b95750600114610364575b505050829003601f01601f191682019267ffffffffffffffff841183851017610351575082918261034d925282610a7b565b0390f35b634e487b7160e01b815260418552602490fd5b8787529192508591837f8a35acfbc15ff81a39ae7d344fd709f28e8600b4aa8c65c6b64bfe7fe36bd19b5b8385106103a5575050505083010185808061031b565b80548886018301529301928490820161038f565b60ff1916878501525050151560051b840101905085808061031b565b634e487b7160e01b895260228a52602489fd5b91607f16916102fc565b505034610145578160031936011261014557602090517f00000000000000000000000000000000000000000000000000000000000000008152f35b505034610145578160031936011261014557602090517f000000000000000000000000000000000000000000000000000000000000000015158152f35b5050346101455760203660031901126101455760209181906001600160a01b03610492610ac4565b16815280845220549051908152f35b50503461014557816003193601126101455760209051600a8152f35b8284346105735760203660031901126105735750813591600654831015610541575061034d6104eb83610af5565b50546001600160a01b03169160ff6002610512600161050988610af5565b50015496610af5565b50015491516001600160a01b039094168452602084019490945292909216151560408201529081906060820190565b6020606492519162461bcd60e51b8352820152600d60248201526c092dcecc2d8d2c840d2dcc8caf609b1b6044820152fd5b80fd5b505034610145578160031936011261014557602090517f000000000000000000000000000000000000000000000000000000000000000015158152f35b5050346101455781600319360112610145576020906006549051908152f35b5050346101455781600319360112610145576020905160128152f35b83915034610145576020366003190112610145573590600654821015610573575061061890610af5565b508054600182015460029092015492516001600160a01b039091168152602081019190915260ff90911615156040820152606090f35b82843461057357606036600319011261057357610669610ac4565b610671610adf565b918360443593610682858286610d48565b60018060a01b03908185169384815260209860018a528482203383528a5284822054906000198210610780575b5050507f000000000000000000000000000000000000000000000000000000000000000080610770575b156107625761073e61074f7f6d2113f8bd5342f6e43e5be71ffa1b2f8d07c3c24185fc9d1c3b77785265e5b595969760646107347f000000000000000000000000000000000000000000000000000000000000000083610b46565b0492838092610b6f565b9861074a8a8683610b7c565b610ca8565b8351968752888701521693a35160018152f35b925050506102be9291610b7c565b5061077a85610c5a565b156106d9565b9091929394508782106107ea5785156107d35733156107bc57509087878195949387845260018c528284203385528c52039120558880806106af565b8851634a1406b160e11b8152908101839052602490fd5b885163e602df0560e01b8152908101839052602490fd5b8851637dc7a0d960e11b81523391810191825260208201929092526040810188905281906060010390fd5b5050346101455781600319360112610145576020906002549051908152f35b5050346101455760203660031901126101455760209160ff9082906001600160a01b0361085f610ac4565b1681526007855220541690519015158152f35b5050346101455760203660031901126101455760209160ff9082906001600160a01b0361089d610ac4565b1681526008855220541690519015158152f35b90503461095a578160031936011261095a576108ca610ac4565b602435903315610943576001600160a01b031691821561092c57508083602095338152600187528181208582528752205582519081527f8c5be1e5ebec7d5bd14f71427d1e84f3dd0314c0f7b2291e5b200ac8c7c3b925843392a35160018152f35b8351634a1406b160e11b8152908101859052602490fd5b835163e602df0560e01b8152808401869052602490fd5b8280fd5b83833461014557816003193601126101455780519082600354600181811c90808316928315610a2e575b60209384841081146103d5578388529081156103b957506001146109d857505050829003601f01601f191682019267ffffffffffffffff841183851017610351575082918261034d925282610a7b565b600387529192508591837fc2575a0e9e593c00f959f8c92f12db2869c3395a3b0502d05e2516446f71f85b5b838510610a1a575050505083010185808061031b565b805488860183015293019284908201610a04565b91607f1691610988565b8490346101455781600319360112610145577f00000000000000000000000000000000000000000000000000000000000000006001600160a01b03168152602090f35b6020808252825181830181905290939260005b828110610ab057505060409293506000838284010152601f8019910116010190565b818101860151848201604001528501610a8e565b600435906001600160a01b0382168203610ada57565b600080fd5b602435906001600160a01b0382168203610ada57565b600654811015610b30576003906006600052027ff652222313e28459528d920b65115c16c04f3efc82aaedc97be59f3f377c0d3f0190600090565b634e487b7160e01b600052603260045260246000fd5b81810292918115918404141715610b5957565b634e487b7160e01b600052601160045260246000fd5b91908203918211610b5957565b916001600160a01b03808416928315610c415716928315610c285760009083825281602052604082205490838210610bf6575091604082827fddf252ad1be2c89b69c2b068fc378daa952ba7f163c4a11628f55a4df523b3ef958760209652828652038282205586815220818154019055604051908152a3565b60405163391434e360e21b81526001600160a01b03919091166004820152602481019190915260448101839052606490fd5b60405163ec442f0560e01b815260006004820152602490fd5b604051634b637e8f60e11b815260006004820152602490fd5b6001600160a01b03908116907f0000000000000000000000000000000000000000000000000000000000000000168114610ca257600052600760205260ff6040600020541690565b50600190565b6000907f0000000000000000000000000000000000000000000000000000000000000000928315925b600654811015610d415783610cf36001610cea84610af5565b50015484610b46565b90610d2b57610d1a9086610d0684610af5565b50549104906001600160a01b031685610b7c565b6000198114610b5957600101610cd1565b634e487b7160e01b600052601260045260246000fd5b5050505050565b907f0000000000000000000000000000000000000000000000000000000000000000610e53575b7f00000000000000000000000000000000000000000000000000000000000000009182610e2f575b5081610e0b575b50610da65750565b7f000000000000000000000000000000000000000000000000000000000000000010610dce57565b60405162461bcd60e51b8152602060048201526015602482015274115e18d959591cc81b585e081d1e08185b5bdd5b9d605a1b6044820152606490fd5b6001600160a01b031660009081526008602052604090205460ff1615905038610d9e565b6001600160a01b031660009081526008602052604090205460ff1615915038610d97565b6001600160a01b0382811615159081610ea3575b50610d6f5760405162461bcd60e51b815260206004820152600f60248201526e496e76616c6964206164647265737360881b6044820152606490fd5b90508116151538610e6756fea2646970667358221220d9f8a3071fd1823ce185e6addbeed29c09a74198e28b19f21d187e6b95b07d6064736f6c63430008140033",
  "linkReferences": {},
  "deployedLinkReferences": {}
}